S0160000486967685F73706565645F5553492E73726563CE
S113000068C082C081C080C07FC07EC07DC07CC00B
S11300107BC07AC079C078C077C076C075C074C020
S113002073C072C071C00D0A4E6F20737472696E12
S113003067210D0A000D0A537472696E67206E758C
S11300406D6265723F203020746F2065786974009A
S11300500D0A52656164696E6720737472696E6714
S1130060732E000D0A4E6F2074657874210D0A00FA
S11300700D0A53656E6420737472696E677320741D
S11300806F205553490D0A000D0A4563686F2073AC
S1130090696E676C65206B657970726573736573DF
S11300A03A2052657475726E206B657920746F20E6
S11300B06573636170652E0D0A000D0A0D0A507296
S11300C06F6772616D2072756E6E696E67206F6EF8
S11300D0200011241FBECFE5D2E0DEBFCDBF10E06B
S11300E0A0E6B0E0EEE6FBE002C005900D92A43B72
S11300F0B107D9F720E0A4EBB0E001C01D92A73D01
S1130100B207E1F7DAD231C57BCF982F9695957572
S1130110880F8A7A982B892F869586958373990FF1
S1130120990F9C7C892B829508951DB880ED83BB23
S11301308FEF88BF12BE6C9AD19A8FB98EB9089589
S1130140E4DF91E093BF08B604FEFDCF699A9FEF08
S113015098BF93B3905393BB982F969596959068B8
S11301609FB925E030E04FEF08B604FEFDCF699A51
S113017048BF93B3905393BB21503109A9F7880F1B
S1130180880F880F87608FB925E030E09FEF08B6AD
S113019004FEFDCF699A98BF83B3805383BB21507B
S11301A03109A9F713BE12BE0895CF93D1988823BD
S11301B039F081E49FE1C89B05C00197E1F702C0D3
S11301C0C899FECFC89964C081E083BF88E683BB29
S11301D008B604FEFDCF699A8FEF88BF83B38053BE
S11301E083BB08B604FEFDCF699A8FEF88BF83B343
S11301F0805383BB08B604FEFDCF699A8FEF88BF96
S113020083B3805383BB08B604FEFDCF699A8FEF96
S113021088BF83B3805383BB08B604FEFDCF699ABD
S11302208FEF88BF83B3805383BB08B604FEFDCF32
S1130230699A8FEF88BF83B3805383BB08B604FEEB
S1130240FDCF699A8FEF88BF83B3805383BB08B611
S113025004FEFDCF699A8FEF88BF83B3805383BBBD
S113026008B604FEFDCF699A8FEF88BF83B380532D
S113027083BB8FB108B604FEFDCF699A9FEF98BF88
S113028093B3905393BB13BE12BE3FDFC82F01C07C
S1130290C0E04BDF8C2FCF9108950F931F93CF9322
S11302A0DF93FC01D198C899FECF81E083BF88E633
S11302B083BB08B604FEFDCF699A8FEF88BF83B372
S11302C0805383BB08B604FEFDCF699A8FEF88BFC5
S11302D083B3805383BB08B604FEFDCF699A8FEFC6
S11302E088BF83B3805383BB08B604FEFDCF699AED
S11302F08FEF88BF83B3805383BB08B604FEFDCF62
S1130300699A8FEF88BF83B3805383BB08B604FE1A
S1130310FDCF699A8FEF88BF83B3805383BB08B640
S113032004FEFDCF699A8FEF88BF83B3805383BBEC
S113033008B604FEFDCF699A8FEF88BF83B380535C
S113034083BB08B604FEFDCF699A8FEF88BF83B3E1
S1130350805383BB9FB108B604FEFDCF699A8FEF2B
S113036088BF83B3805383BB13BE12BE9083809136
S1130370620090E002970CF474C0DF01119661E012
S113038070E020E030E0D1E0C8E69FEFC89B03C0F6
S11303902F5F3F4FD9F7C89960C0D3BFC3BB08B61E
S11303A004FEFDCF699A98BF83B3805383BB08B61C
S11303B004FEFDCF699A98BF83B3805383BB08B60C
S11303C004FEFDCF699A98BF83B3805383BB08B6FC
S11303D004FEFDCF699A98BF83B3805383BB08B6EC
S11303E004FEFDCF699A98BF83B3805383BB08B6DC
S11303F004FEFDCF699A98BF83B3805383BB08B6CC
S113040004FEFDCF699A98BF83B3805383BB08B6BB
S113041004FEFDCF699A98BF43B3405343BB08B66B
S113042004FEFDCF699A98BF43B3405343BB8FB1D9
S113043008B604FEFDCF699A98BF43B3405343BB4B
S113044013BE12BE8D936F5F7F4F4091620050E0E8
S1130450641775070CF49ACF04C0DF01A60FB71F09
S11304601C92809162008823A1F08081882389F006
S1130470EF0100E010E003C08881882351F045DEDD
S113048089930F5F1F4F2091620030E0021713071A
S11304909CF34BDEDF91CF911F910F9108950F9341
S11304A01F93CF93DF93FC018081811109C00FC09A
S11304B08991882361F044DE0C171D07C9F707C032
S11304C08F013EDEE801219608531F4FF1CFDF91E3
S11304D0CF911F910F91089583E690E0E0DF089596
S11304E00F931F93CF93DF93FC018081811109C087
S11304F00FC08991882361F023DE0C171D07C9F70B
S113050007C08F011DDEE801219608531F4FF1CF6C
S1130510DF91CF911F910F91089580E046DE8D30D9
S113052011F08A3019F481E040DE8DE00895CF9314
S1130530DF93EC0181E039DE811102C02197D0F70D
S1130540DF91CF910895CF93DF9380E02EDE805327
S11305508A30D8F7C82FD0E0E0DF8D3079F08053AF
S11305608A30D0F79E01220F331F220F331FC20F90
S1130570D31FCC0FDD1FC80FD11DEECFCE01DF91ED
S1130580CF9108950F931F93CF93DF93EC01FC0158
S11305902491222371F08C01045C1F4FFE0184918D
S11305A0CFDD2196FE019491992319F00C171D07B4
S11305B0A9F7DF91CF911F910F9108959093B70000
S11305C08093D3000F92FF93EF93F091B700E091E3
S11305D0D30004900092D400EF91FF910F9080918A
S11305E0D40008950F931F93CF93DF93EC0100E0A1
S11305F010E0CE01E3DF81110FC091E0900F209154
S1130600D1003091D2002F5F3F4F3093D20020931E
S1130610D10011110CC00FC02091D1003091D20033
S11306202F5F3F4F3093D2002093D10001C0092F98
S11306302197182FDECF802FDF91CF911F910F913B
S11306400895EF92FF920F931F93CF93DF937C0152
S1130650EB011092B40081E0E816F10471F001E0BE
S113066010E0CE01ABDF8093CB00811102C00F5F9D
S11306701F4F21970E151F05A1F7CE019FDF809311
S1130680CB00882399F05CDD8091B4008F5F809368
S1130690B4009091CB00903239F48B3528F083E686
S11306A090E0FDDE1092B4002197E7CFDF91CF9167
S11306B01F910F91FF90EF900895CF93DF93CDB7E3
S11306C0DEB7809162002DB73EB7281B31090FB603
S11306D0F8943EBF0FBE2DBF8DB79EB701966C0137
S11306E0A89584B7877F84BF81B5886181BD11BC1B
S11306F085B78F7B85BF1ABA8FEF8BBB17BA88BBC0
S1130700889AE9EBF0E086E690E0918380838AE6BC
S113071090E0938382838EE690E09583848382E7DE
S113072090E09783868387E790E0918780878CE7C2
S113073090E09387828781E890E09587848786E8B4
S113074090E097878687E0906000F0906100C70191
S11307500497F5D1182F90E09093D6008093D5009C
S1130760C7010597ECD1282F30E03093CF002093B8
S1130770CE00123991F1133909F455C0113909F039
S113078078C020E034E03093CD002093CC0020E802
S113079030E03093B6002093B5008B3059F08C30A4
S11307A071F0893099F486E090E09093CA008093C8
S11307B0C90065C01092CA001092C90060C083E0ED
S11307C090E09093CA008093C90059C087E090E0FC
S11307D09093CA008093C90052C020E038E030935F
S11307E0CD002093CC0020E031E03093B60020937C
S11307F0B500873019F0883041F00EC081E090E0F8
S11308009093CA008093C9003AC084E090E090932A
S1130810CA008093C90033C087E090E09093CA0077
S11308208093C9002CC020E030E13093CD002093A8
S1130830CC0020E032E03093B6002093B5008C3039
S113084019F08D3041F00EC082E090E09093CA0020
S11308508093C90014C085E090E09093CA0080930F
S1130860C9000DC087E090E09093CA008093C9004E
S113087006C087E090E09093CA008093C90055DCDD
S113088061B78091B5009091B600039760D1E09074
S1130890B500F090B600C701029751D1182F80EF30
S11308A0810F803E30F4C701019749D1181301C06C
S11308B011BF83EA90E0F3DD8DE790E038DE8093AA
S11308C0D0008823B1F38F7D823599F783E690E0D9
S11308D0E6DDE9EBF0E086E690E0918380838AE64A
S11308E090E0938382838EE690E09583848382E70D
S11308F090E09783868387E790E0918780878CE7F1
S113090090E09387828781E890E09587848786E8E2
S113091090E097878687E0906000F0906100C701BF
S113092004970DD1182F90E09093D6008093D500B2
S1130930C701059704D1282F30E03093CF002093CE
S1130940CE00123991F1133909F455C0113909F067
S113095078C020E034E03093CD002093CC0020E830
S113096030E03093B6002093B5008B3059F08C30D2
S113097071F0893099F486E090E09093CA008093F6
S1130980C90065C01092CA001092C90060C083E01B
S113099090E09093CA008093C90059C087E090E02A
S11309A09093CA008093C90052C020E038E030938D
S11309B0CD002093CC0020E031E03093B6002093AA
S11309C0B500873019F0883041F00EC081E090E026
S11309D09093CA008093C9003AC084E090E0909359
S11309E0CA008093C90033C087E090E09093CA00A6
S11309F08093C9002CC020E030E13093CD002093D7
S1130A00CC0020E032E03093B6002093B5008C3067
S1130A1019F08D3041F00EC082E090E09093CA004E
S1130A208093C90014C085E090E09093CA0080933D
S1130A30C9000DC087E090E09093CA008093C9007C
S1130A4006C087E090E09093CA008093C9008AEBC7
S1130A5090E098DD8AEA90E022DDE091C900F0910F
S1130A60CA00EE0FFF1FE754FF4F8081918117DD0D
S1130A708091C9009091CA00079709F4FFCF2CDD3B
S1130A808091D0008237A1F488E890E07BDD01C03A
S1130A9057DB43DD8D30E1F780E790E073DD0AE05A
S1130AA010E0C601FADBC6011BDD01501109C9F7CC
S1130AB08091D000823509F039C01092D200109292
S1130AC0D1000091CC001091CD00000F111F0150F6
S1130AD01109C80173DD8F3F61F483E690E052DDB4
S1130AE09AE088E10FB6F894A89581BD0FBE91BD38
S1130AF0FFCF80E590E046DDC80174DDE82E85E394
S1130B0090E040DDF12C1FDD6C01009779F0E816D0
S1130B10F90624F486E290E035DDF5CFDDDC83E6EA
S1130B2090E0BDDCB801C6018CDDEDCF9AE088E130
S1130B300FB6F894A89581BD0FBE91BDFFCFE19982
S1130B40FECF9FBB8EBBE09A99278DB30895262FC5
S1130B50E199FECF1CBA9FBB8EBB2DBB0FB6F89498
S1110B60E29AE19A0FBE01960895F894FFCF31
S1130B6E00202F0D0A003234410034344100383451
S1130B7E410032363141003436314100383631418C
S1130B8E0032362F4C003F20556E6B6E6F776E2001
S1130B9E64657669636521204F702068616C7465A5
S1130BAE642E00523F20202020000D0A4154746907
S1070BBE6E79000048
S9030000FC
