:1000000010C02AC029C028C027C026C025C024C0CF
:1000100023C022C021C020C01FC01EC01DC01CC0E4
:100020001BC011241FBECFE5D1E0DEBFCDBF10E065
:10003000A0E6B0E0E8E6F9E002C005900D92A43D2C
:10004000B107D9F720E0A4EDB0E001C01D92A83FB0
:10005000B207E1F72FD286C4D3CF982F9695957526
:10006000880F8A7A982B892F869586958373990FA6
:10007000990F9C7C892B829508958AB31ABADE9ACF
:100080001DB882ED86BF82E088BF12BE6C9AD59AF9
:100090008FEF8FB98EB90895E0DF91E093BF08B676
:1000A00001FEFDCF699A98B7926098BF96B79E52AD
:1000B00096BF982F9695969590689FB925E030E069
:1000C00008B601FEFDCF699A98B7926098BF96B7BF
:1000D0009E5296BF2150310999F7880F880F880FDB
:1000E00087608FB925E030E008B601FEFDCF699A40
:1000F00088B7826088BF86B78E5286BF215031098B
:1001000099F713BE0895CF938AB38F788ABB8BB3C8
:1001100080678BBB1DB8CE99FECF12BE87E686BF27
:1001200081E083BF80E18DB908B601FEFDCF699AF9
:1001300088B7826088BF86B7825386BF08B601FE43
:10014000FDCF699A88B7826088BF86B7825386BF21
:1001500008B601FEFDCF699A88B7826088BF86B76E
:10016000825386BF08B601FEFDCF699A88B78260C8
:1001700088BF86B7825386BF08B601FEFDCF699A55
:1001800088B7826088BF86B7825386BF08B601FEF3
:10019000FDCF699A88B7826088BF86B7825386BFD1
:1001A00008B601FEFDCF699A88B7826088BF86B71E
:1001B000825386BF08B601FEFDCF699A88B7826078
:1001C00088BF86B7825386BF08B601FEFDCF699A05
:1001D00088B7826088BF86B7825386BF8FB108B662
:1001E00001FEFDCF699A98B7926098BF96B7925377
:1001F00096BF13BE32DFC82F40DF8C2FCF910895FA
:100200000F931F93CF93DF938C018AB38F788ABBB0
:100210008BB380678BBB1DB8CE99FECF12BE87E62D
:1002200086BF81E083BF80E18DB908B601FEFDCFB6
:10023000699A88B7826088BF86B7825386BF08B63E
:1002400001FEFDCF699A88B7826088BF86B7825366
:1002500086BF08B601FEFDCF699A88B7826088BF65
:1002600086B7825386BF08B601FEFDCF699A88B76C
:10027000826088BF86B7825386BF08B601FEFDCF75
:10028000699A88B7826088BF86B7825386BF08B6EE
:1002900001FEFDCF699A88B7826088BF86B7825316
:1002A00086BF08B601FEFDCF699A88B7826088BF15
:1002B00086B7825386BF08B601FEFDCF699A88B71C
:1002C000826088BF86B7825386BF08B601FEFDCF25
:1002D000699A88B7826088BF86B7825386BF9FB10C
:1002E00008B601FEFDCF699A88B7826088BF86B7DD
:1002F000825386BF13BEE8019993FE0121E030E0EE
:1003000067E651E040E11DB881E49FE1CE9B02C069
:100310000197E1F7CE9972C012BE66BF53BF4DB9C7
:1003200008B601FEFDCF699A88B7826088BF86B79C
:10033000825386BF08B601FEFDCF699A88B78260F6
:1003400088BF86B7825386BF08B601FEFDCF699A83
:1003500088B7826088BF86B7825386BF08B601FE21
:10036000FDCF699A88B7826088BF86B7825386BFFF
:1003700008B601FEFDCF699A88B7826088BF86B74C
:10038000825386BF08B601FEFDCF699A88B78260A6
:1003900088BF86B7825386BF08B601FEFDCF699A33
:1003A00088B7826088BF86B7825386BF08B601FED1
:1003B000FDCF699A88B7826088BF86B7825386BFAF
:1003C00008B601FEFDCF699A88B7826088BF86B7FC
:1003D000825386BF9FB108B601FEFDCF699A88B7E8
:1003E000826088BF86B7825386BF13BE91932F5F0A
:1003F0003F4F2E32310509F086CF0FC0F801E20FD2
:10040000F31F10820AC08881882329F026DE899391
:100410000C171D07C1F731DE0AC0F801808188235F
:10042000D1F31BDEF8018083025D1F4FECCFDF911B
:10043000CF911F910F9108950F931F93CF93DF9347
:10044000FC018081811109C00FC08991882361F06E
:1004500023DE0C171D07C9F707C08F011DDEE80159
:10046000219608531F4FF1CFDF91CF911F910F912C
:10047000089581ED90E0E0DF08950F931F93CF93EF
:10048000DF93FC018081811109C00FC0899188230D
:1004900061F002DE0C171D07C9F707C08F01FCDDF4
:1004A000E801219608531F4FF1CFDF91CF911F91A3
:1004B0000F910895CF93DF93CDB7DEB7AF970FB607
:1004C000F894DEBF0FBECDBFA89584B7877F84BFE9
:1004D00081B5886181BD11BC85B78F7B85BF1ABA94
:1004E0008FEF8BBB17BA8FE088BBE9EDF0E082E6B7
:1004F00090E09183808387E690E0938382838CE60B
:1005000090E09583848382E790E09783868388E7F1
:1005100090E0918780878CE790E09387828780E8DE
:1005200090E095878487E2EFF0E084E890E09183A3
:1005300080838CE890E093838283E0906000F09069
:100540006100C7010497F8D1182F90E09093F7004D
:100550008093F600C7010597EFD1282F30E0309344
:10056000F1002093F000143909F452C028F4123934
:1005700051F0133989F1A9C0153909F465C016394C
:1005800009F48BC0A2C020E038E03093EE00209345
:10059000ED0020E031E03093D5002093D400873087
:1005A00071F08A3019F0853009F08FC01092EA009E
:1005B0001092E9001092D7001092D60086C086E013
:1005C00090E09093EA008093E90081E090E09093BE
:1005D000D7008093D60079C020E030E13093EE0060
:1005E0002093ED0020E032E03093D5002093D4003A
:1005F0008A3019F08F3009F068C081E090E0909364
:10060000EA008093E9001092D7001092D6005DC0F6
:1006100020E030E23093EE002093ED0020E032E065
:100620003093D5002093D400863019F08B3009F038
:100630004CC082E090E09093EA008093E900109231
:10064000D7001092D60041C020E030E43093EE0095
:100650002093ED0020E034E03093D5002093D400C7
:100660008F3029F0843119F0823079F50BC083E0A6
:1006700090E09093EA008093E9001092D7001092E6
:10068000D60023C085E090E09093EA008093E900D3
:100690001092D7001092D60018C020E030E83093B6
:1006A000EE002093ED0020E038E03093D500209359
:1006B000D400893051F484E090E09093EA00809374
:1006C000E9001092D7001092D600D7DC61B7809174
:1006D000D4009091D500039737D1E090D400F090EA
:1006E000D500C701029728D1182F80EF810F803ED7
:1006F00030F4C701019720D1181301C011BFD29A5D
:10070000DA9801DDE9EDF0E082E690E09183808304
:1007100087E690E0938382838CE690E095838483E0
:1007200082E790E09783868388E790E091878087CF
:100730008CE790E09387828780E890E095878487B4
:10074000E2EFF0E084E890E0918380838CE890E031
:1007500093838283E0906000F0906100C70104976A
:10076000EBD0182F90E09093F7008093F600C7012C
:100770000597E2D0282F30E03093F1002093F0006D
:10078000143909F452C028F4123951F0133989F19F
:10079000A9C0153909F465C0163909F48BC0A2C087
:1007A00020E038E03093EE002093ED0020E031E0CF
:1007B0003093D5002093D400873071F08A3019F03F
:1007C000853009F08FC01092EA001092E900109273
:1007D000D7001092D60086C086E090E09093EA00A1
:1007E0008093E90081E090E09093D7008093D60059
:1007F00079C020E030E13093EE002093ED0020E05E
:1008000032E03093D5002093D4008A3019F08F3035
:1008100009F068C081E090E09093EA008093E900DD
:100820001092D7001092D6005DC020E030E23093E5
:10083000EE002093ED0020E032E03093D5002093CD
:10084000D400863019F08B3009F04CC082E090E083
:100850009093EA008093E9001092D7001092D6009E
:1008600041C020E030E43093EE002093ED0020E022
:1008700034E03093D5002093D4008F3029F08431B8
:1008800019F0823079F50BC083E090E09093EA0094
:100890008093E9001092D7001092D60023C085E023
:1008A00090E09093EA008093E9001092D7001092B4
:1008B000D60018C020E030E83093EE002093ED0021
:1008C00020E038E03093D5002093D400893051F4F3
:1008D00084E090E09093EA008093E9001092D700C2
:1008E0001092D60084E990E0A7DDE091D600F09167
:1008F000D700EE0FFF1FEE50FF4F808191819CDDEE
:10090000E091E900F091EA00EE0FFF1FE752FF4F80
:100910008081918191DDADDD8CEA90E08DDD01C0BB
:10092000BBDBF1DB8E37E1F7A4DDCE01019668DC9D
:10093000CE010196A2DDF9CFE199FECF1FBA8EBBA1
:10094000E09A99278DB30895262FE199FECF1CBA1E
:100950001FBA8EBB2DBB0FB6F894E29AE19A0FBE78
:0809600001960895F894FFCF01
:10096800002034382F500038382F50003136382FB7
:1009780050003332382F50003634340033324100BF
:100988003434410041746D656761200041547469D5
:100998006E7920000D0A0D0A50726F6772616D2022
:1009A80072756E6E696E67206F6E20000D0A456362
:1009B800686F2073696E676C65206B657970726506
:1009C80073736573207E20746F206573636170652F
:0409D8002E0D0A00D6
:00000001FF
