:1000000010C02AC07AC128C027C026C025C024C07D
:1000100023C058C121C020C01FC01EC01DC01CC0AD
:100020005CC111241FBECFE5D1E0DEBFCDBF10E023
:10003000A0E6B0E0E6E7F5E002C005900D92AA3731
:10004000B107D9F720E0AAE7B0E001C01D92A338BC
:10005000B207E1F7F0D18DC2D3CF1DB88DE686BFD0
:1000600082E088BF12BE89B7826089BF6E9A6C9A9F
:100070006A9AD59A8FEF8FB98EB90895982F969571
:100080009575880F8A7A982B892F86958695837324
:10009000990F990F9C7C892B82950895EFDF92E050
:1000A00093BF909180009923E1F3109280009BEF21
:1000B0009EB9982F9695969590689FB990918000DB
:1000C0009923E1F3109280009BEF9EB9880F880F6F
:1000D000880F87608FB9809180008823E1F31092A8
:1000E000800013BE08950F931F93CF93DF93FC01FD
:1000F0008081811109C00FC08991882361F0CEDF12
:100100000C171D07C9F707C08F01C8DFE80121964A
:1001100008531F4FF1CFDF91CF911F910F91089599
:1001200080E690E0E0DF08952F923F924F925F9239
:100130006F927F928F929F92AF92BF92CF92DF92F7
:10014000EF92FF920F931F93CF93DF931C012A012D
:100150003B01411551056105704861F52A3019F0E0
:100160002031B9F063C098E3F101908384E3818387
:1001700026E3228323E323839483858397E3968373
:10018000878381E3808782E381878DE2828713867C
:100190004DC080E3F10180838183828383838483E4
:1001A0008583868388E387838DE280871186128624
:1001B00013863CC0E101C1010C96F1011192E817D0
:1001C000F907E1F77301620177203CF4CC24DD24C8
:1001D0007601C418D508E608F70800E010E0822E82
:1001E000912CA12CB12CC701B601A501940183D19A
:1001F00068836A3018F4605D688302C0695C688354
:100200000F5F1F4FC701B601A501940174D16901A9
:100210007A012196121613061406150624F3772088
:100220002CF4F101E00FF11F8DE28083DF91CF917B
:100230001F910F91FF90EF90DF90CF90BF90AF9004
:100240009F908F907F906F905F904F903F902F90F6
:1002500008950F931F93CF93DF93FC0120812223F6
:1002600091F03196C0E0D0E0219621912111FCCF90
:10027000209749F08C010C0F1D1FF80182918F010E
:100280000DDF2197D1F7DF91CF911F910F91089545
:10029000CF93DF93CDB7DEB72C970FB6F894DEBFC0
:1002A0000FBECDBF282FCE0101963EDFCE010196B5
:1002B000D0DF2C960FB6F894DEBF0FBECDBFDF9116
:1002C000CF9108951F920F920FB60F92112412BE74
:1002D0000F900FBE0F901F9018951F920F920FB6A0
:1002E0000F9211248F93769A81E0809380008F91F2
:1002F0000F900FBE0F901F9018951F920F920FB680
:100300000F9211242F933F938F939F93AF93BF939B
:100310008EB5811103C082E08EBD26C02CB53DB5DF
:100320001DBC1CBC9091810080917A009817B8F098
:1003300080917B0090917C00A0917D00B0917E0027
:100340009058A109B109820F931FA11DB11D80937F
:100350007B0090937C00A0937D00B0937E00809101
:1003600081008F5F8093810098B381E0892788BBEB
:10037000BF91AF919F918F913F912F910F900FBEA1
:100380000F901F901895A62F1EBC1DBC1CBC9AB7C1
:1003900094609ABFB89AC0989BB790619BBF949A9B
:1003A000813021F480937A0021E00EC0823021F464
:1003B00080937A0024E008C0833029F485E080939C
:1003C0007A002AE001C021E01092810010927B00A7
:1003D00010927C0010927D0010927E00E22FF0E0DF
:1003E0008091810030917A0090E0AF01430F511D60
:1003F00084179507ACF31092810060917B00709197
:100400007C0080917D0090917E00A11109C099230C
:100410003CF490958095709561957F4F8F4F9F4FDD
:100420003BB73F7E3BBF949830E040E050E063D064
:10043000CA01B9010895A89584B7877F84BF81B5A3
:10044000886181BD11BC09DE789411B7D1B780EF06
:1004500081BFC0E01BC081B7815081BF01B600FCE5
:1004600002C08EE21BDE60E081E08DDF683C71053A
:10047000810591050CF4D1B7683E73408105910563
:1004800024F4CF5FC53011F404C0C0E081B78F30D1
:1004900010F746DE83E690E026DE412F50E060E074
:1004A00070E08AE0F5DE3CDEC6EFCD0F0D2F10E0E8
:1004B0000A5011090F2EF5E1FF2EF02DFD0EC1BFE0
:1004C00061E083E060DF4B015C01D1BFA801012E38
:1004D000000C660B770B8AE0DBDE89E0DFDDB5011F
:1004E000A4018AE0D5DE1CDECF5F0F5F1F4FCF1166
:1004F000E6CFF894FFCF052E97FB16F400940FD0AB
:1005000057FD05D014D007FC02D046F408C0509522
:100510004095309521953F4F4F4F5F4F08959095EF
:100520008095709561957F4F8F4F9F4F0895A1E201
:100530001A2EAA1BBB1BFD010DC0AA1FBB1FEE1F5D
:10054000FF1FA217B307E407F50720F0A21BB30BA8
:10055000E40BF50B661F771F881F991F1A9469F724
:1005600060957095809590959B01AC01BD01CF0180
:060570000895F894FFCF8E
:100576000D0A0044656661756C74204F5343434110
:0A0586004C2076616C7565202000A2
:00000001FF
