:1000000010C02AC0ADC428C027C026C025C024C047
:1000100023C07CC421C020C01FC01EC01DC01CC086
:1000200089C411241FBECFE5D2E0DEBFCDBF11E0F1
:10003000A0E6B0E0EAEDFAE002C005900D92A8312A
:10004000B107D9F721E0A8E1B1E001C01D92AC33BE
:10005000B207E1F711D23FC5D3CF982F969595758A
:10006000880F8A7A982B892F869586958373990FA6
:10007000990F9C7C892B82950895EFDF91E093BFC7
:10008000909118019923E1F3109218019BEF9EB90A
:10009000982F9695969590689FB9909118019923FD
:1000A000E1F3109218019BEF9EB9880F880F880F1B
:1000B00087608FB9809118018823E1F310921801AD
:1000C00013BE08958AB31ABADE9A1DB813BE89EB1F
:1000D00086BF82E088BF12BE89B7826089BF6E9AF0
:1000E0006C9A6A9AD59A8FEF8FB98EB90895CF938B
:1000F0009AB39F789ABB9BB390679BBB1DB89AB786
:1001000090619ABF9BB790619BBF969A882349F0F4
:1001100081E49FE120913801211107C00197D1F7B7
:1001200004C0809138018823E1F38091380188234D
:1001300031F01092380180B390DFC82F01C0C0E0C9
:10014000C1DF8C2FCF9108950F931F93CF93DF932F
:10015000FC018081811109C00FC08991882361F061
:100160008CDF0C171D07C9F707C08F0186DFE80178
:10017000219608531F4FF1CFDF91CF911F910F911F
:10018000089584E191E0E0DF08952F923F924F922D
:100190005F926F927F928F929F92AF92BF92CF9217
:1001A000DF92EF92FF920F931F93CF93DF931C0187
:1001B0002A013B01411551056105704861F52A305E
:1001C00019F02031B9F063C098E3F101908384E322
:1001D000818326E3228323E323839483858397E328
:1001E0009683878381E3808782E381878DE282879C
:1001F00013864DC080E3F1018083818382838383F2
:1002000084838583868388E387838DE28087118654
:10021000128613863CC0E101C1010C96F1011192D6
:10022000E817F907E1F77301620177203CF4CC2469
:10023000DD247601C418D508E608F70800E010E0D0
:10024000822E912CA12CB12CC701B601A5019401DD
:10025000EED368836A3018F4605D688302C0695C1D
:1002600068830F5F1F4FC701B601A5019401DFD35B
:1002700069017A012196121613061406150624F355
:1002800077202CF4F101E00FF11F8DE28083DF91E4
:10029000CF911F910F91FF90EF90DF90CF90BF9083
:1002A000AF909F908F907F906F905F904F903F9016
:1002B0002F9008950F931F93CF93DF93FC0120811C
:1002C000222391F03196C0E0D0E0219621912111B6
:1002D000FCCF209749F08C010C0F1D1FF801829173
:1002E0008F01CBDE2197D1F7DF91CF911F910F9135
:1002F0000895CF93DF93CDB7DEB72C970FB6F89460
:10030000DEBF0FBECDBF282FCE0101963EDFCE014E
:100310000196D0DF2C960FB6F894DEBF0FBECDBF8E
:10032000DF91CF91089562BF83BF08B600FEFDCF75
:1003300088B7816088BF13BE0895A62F1EBC1DBC60
:100340001CBC9AB790619ABF9BB790619BBF949A6F
:10035000813021F480932E0121E00EC0823021F4FF
:1003600080932E0124E008C0833029F485E0809337
:100370002E012AE001C021E01092390110922F01D4
:10038000109230011092310110923201E22FF0E010
:100390008091390130912E0190E0AF01430F511D42
:1003A00084179507ACF31092390160912F01709179
:1003B00030018091310190913201A11109C099233E
:1003C0003CF490958095709561957F4F8F4F9F4F2E
:1003D0003BB73F7E3BBF949830E040E050E027D3EE
:1003E000CA01B9010895CF93C82F80911901909146
:1003F0001A016C2F019761D38091190190911A0114
:100400006C2F02975AD38091190190911A01609133
:100410001B01039752D3CF91089580E690E094DEBC
:100420008091190190911A0103973FD3482F50E012
:1004300060E070E08AE05DDF88E790E085DE809133
:10044000190190911A01029730D3482F50E060E0D3
:1004500070E08AE04EDF88E790E076DE8091190157
:1004600090911A01019721D3482F50E060E070E08D
:100470008AE03FDF86DE0895A89584B7877F84BF32
:1004800081B5886181BD11BC85B78F7B85BF1ABAE4
:100490008FEF8BBB17BA8FE088BBECE1F1E08BE705
:1004A00090E0918380838FE790E09383828383E859
:1004B00090E09583848387E890E0978386838CE837
:1004C00090E09187808781E990E09387828786E931
:1004D00090E0958784878BE990E0978786878CEFFB
:1004E0009FE1E3D2C82F90E090933B0180933A01C3
:1004F0008BEF9FE1DAD2282F30E030933601209342
:100500003501C23991F1C33909F455C0C13909F037
:1005100078C020E034E0309334012093330120E8A8
:1005200030E030931A01209319018B3059F08C3050
:1005300071F0893099F486E090E090932D018093DA
:100540002C0165C010922D0110922C0160C083E037
:1005500090E090932D0180932C0159C087E090E0AA
:1005600090932D0180932C0152C020E038E030930D
:1005700034012093330120E031E030931A012093BD
:100580001901873019F0883041F00EC081E090E009
:1005900090932D0180932C013AC084E090E09093D9
:1005A0002D0180932C0133C087E090E090932D01C2
:1005B00080932C012CC020E030E130933401209353
:1005C000330120E032E030931A01209319018C307E
:1005D00019F08D3041F00EC082E090E090932D0133
:1005E00080932C0114C085E090E090932D018093BE
:1005F0002C010DC087E090E090932D0180932C0199
:1006000006C087E090E090932D0180932C015ADD85
:10061000789480E06CDD81B780931B01D1B7B1B6CF
:1006200080EF81BFC0E013E018C081B781B7612FB0
:10063000F2D1911102C08EE220DD60E081E07DDE2A
:10064000683E7340810591050CF05BC1D1B7CF5F67
:1006500081B7825081BFC43019F081B78F3028F73D
:1006600090DDECE1F1E08BE790E0918380838FE710
:1006700090E09383828383E890E09583848387E886
:1006800090E0978386838CE890E09187808781E96A
:1006900090E09387828786E990E0958784878BE94D
:1006A00090E0978786878CEF9FE1FFD1C82F90E07D
:1006B00090933B0180933A018BEF9FE1F6D1282F75
:1006C00030E03093360120933501C23991F1C339BE
:1006D00009F455C0C13909F078C020E034E0309306
:1006E00034012093330120E830E030931A01209345
:1006F00019018B3059F08C3071F0893099F486E013
:1007000090E090932D0180932C0165C010922D01F3
:1007100010922C0160C083E090E090932D018093B3
:100720002C0159C087E090E090932D0180932C011B
:1007300052C020E038E0309334012093330120E0B0
:1007400031E030931A0120931901873019F0883075
:1007500041F00EC081E090E090932D0180932C0138
:100760003AC084E090E090932D0180932C0133C037
:1007700087E090E090932D0180932C012CC020E025
:1007800030E1309334012093330120E032E03093A4
:100790001A01209319018C3019F08D3041F00EC0F0
:1007A00082E090E090932D0180932C0114C085E0AD
:1007B00090E090932D0180932C010DC087E090E094
:1007C00090932D0180932C0106C087E090E09093D8
:1007D0002D0180932C0188EB90E0B6DCE0912C0198
:1007E000F0912D01EE0FFF1FE45EFE4F808191819D
:1007F000ABDC80912C0190912D01079709F4FFCF7C
:100800008FEC90E0A1DC40911B0150E060E070E0D3
:100810008AE06FDD88E790E097DC4D2F50E060E0E4
:1008200070E08AE066DD88E790E08EDC8091190157
:1008300090911A01029739D1482F50E060E070E0A2
:100840008AE057DD9EDCC1EFCD0F0D2F10E00F5079
:1008500011096894992494F89D0EA12C812C6CEDBB
:1008600085E061DDC1BF61E081E067DD6B017C0196
:10087000DC01CB0188519C4FAF4FBF4F813D97406A
:10088000A105B10530F4A39481E0A81203C081B69C
:1008900001C0A12CD1BF4A2D50E060E070E080E1A2
:1008A00028DD89E0EADBA801012E000C660B770B3E
:1008B0008AE01FDD89E0E1DBB701A6018AE019DDEE
:1008C00060DCCF5F0F5F1F4FC911C9CF81EF90E090
:1008D0003BDC80E00CDC883781F09FEC980F9A308D
:1008E00010F098EC980FB82CB90E4B2D50E060E04A
:1008F00070E08AE0FEDC45DCECCF8B2D74DD8DDD15
:10090000FFCF81B7825081BFC0E0A7CE1F920F9268
:100910000FB60F9211248F93D59B03C089EB86BF2E
:1009200002C089EB86BF12BE8F910F900FBE0F9051
:100930001F9018951F920F920FB60F9211248F934C
:10094000769AD59B04C081E08093180103C081E0B2
:10095000809338018F910F900FBE0F901F901895C4
:100960001F920F920FB60F9211242F933F938F93E4
:100970009F93AF93BF93D59B2DC08EB5811103C0BC
:1009800082E08EBD3DC02CB53DB51DBC1CBC909118
:10099000390180912E019817B8F080912F01909124
:1009A0003001A0913101B09132019058A109B109F3
:1009B000820F931FA11DB11D80932F0190933001D1
:1009C000A0933101B0933201809139018F5F809300
:1009D000390116C0CE9914C012BE8CE586BF81E0E5
:1009E00083BF82E088BF89B7826089BF6E9A6C9AA4
:1009F0006A9A1092380187EF8EB98BB78F7E8BBFC2
:100A0000BF91AF919F918F913F912F910F900FBE0A
:100A10000F901F901895991B79E004C0991F9617A5
:100A200008F0961B881F7A95C9F780950895052EC2
:100A300097FB16F400940FD057FD05D014D007FC97
:100A400002D046F408C050954095309521953F4F0F
:100A50004F4F5F4F089590958095709561957F4FAA
:100A60008F4F9F4F0895A1E21A2EAA1BBB1BFD01B9
:100A70000DC0AA1FBB1FEE1FFF1FA217B307E4077D
:100A8000F50720F0A21BB30BE40BF50B661F771FD5
:100A9000881F991F1A9469F76095709580959095B5
:100AA0009B01AC01BD01CF010895E199FECF9FBB31
:100AB0008EBBE09A99278DB30895262FE199FECF3A
:100AC0001CBA9FBB8EBB2DBB0FB6F894E29AE19A7D
:0A0AD0000FBE01960895F894FFCFC1
:100ADA000D0A56616C7565732073617665642074BE
:100AEA006F20454550524F4D20200032344100348A
:100AFA003441003834410032363141003436314114
:100B0A0000383631410032362F4C003F20556E6B8B
:100B1A006E6F776E2064657669636521204F702059
:100B2A0068616C7465642E000D0A0D0A43616C6974
:100B3A0062726174696E6720415474696E79000D3E
:100B4A000A44562F57562C2070726576696F757352
:100B5A00204F534343414C2076616C7565732020C6
:100B6A0000557365722063616C3F20456E7465722F
:100B7A00203120746F2046207468656E20782069C1
:080B8A0066204F4B0D0A00002C
:00000001FF
