:100000000C9434000C9451000C9451000C94590140
:100010000C9451000C9451000C9451000C9451001C
:100020000C9451000C9451000C9451000C9451000C
:100030000C9451000C9451000C9451000C945100FC
:100040000C9451000C9451000C9451000C945100EC
:100050000C9451000C9451000C9451000C945100DC
:100060000C9451000C94510011241FBECFEFD8E026
:10007000DEBFCDBF11E0A0E0B1E0E6EAF5E002C0EE
:1000800005900D92AA31B107D9F721E0AAE1B1E0BC
:1000900001C01D92A332B207E1F70E9417020C942F
:1000A000D1020C940000E0ECF0E0908195FFFDCFD0
:1000B0008093C60008950F931F93CF93DF93FC01A5
:1000C000808181110AC011C08991882371F00E943A
:1000D00053000C171D07C1F708C08F010E94530081
:1000E000E801219608531F4FEFCFDF91CF911F9169
:1000F0000F91089580E091E00E945B0008952F9297
:100100003F924F925F926F927F928F929F92AF92A7
:10011000BF92CF92DF92EF92FF920F931F93CF93F4
:10012000DF931C012A013B0141155105610570480F
:1001300061F52A3019F02031B9F065C098E3F1017A
:10014000908384E3818326E3228323E323839483C0
:10015000858397E39683878381E3808782E3818722
:100160008DE2828713864FC080E3F1018083818313
:100170008283838384838583868388E387838DE278
:1001800080871186128613863EC0E101C1010C965C
:10019000F1011192E817F907E1F773016201772085
:1001A0003CF4CC24DD247601C418D508E608F70811
:1001B00000E010E0822E912CA12CB12CC701B601D9
:1001C000A50194010E94900268836A3018F4605D72
:1001D000688302C0695C68830F5F1F4FC701B60167
:1001E000A50194010E94900269017A0121961216DC
:1001F00013061406150614F377202CF4F101E00F12
:10020000F11F8DE28083DF91CF911F910F91FF90BD
:10021000EF90DF90CF90BF90AF909F908F907F90A6
:100220006F905F904F903F902F9008950F931F9382
:10023000CF93DF93FC012081222399F03196C0E017
:10024000D0E0219621912111FCCF209751F08C0113
:100250000C0F1D1FF80182918F010E9453002197FE
:10026000C9F7DF91CF911F910F910895CF93DF933D
:10027000CDB7DEB72C970FB6F894DEBF0FBECDBF5B
:10028000282FCE0101960E947F00CE0101960E9488
:1002900016012C960FB6F894DEBF0FBECDBFDF91CE
:1002A000CF91089566BD85BDA89BFECFA89A15BCC9
:1002B00008951F920F920FB60F9211242F933F9320
:1002C0008F939F93AF93BF93EF93FF9380918100A0
:1002D000811104C082E08093810028C0E4E8F0E04E
:1002E00020813181118210829091210180911A0127
:1002F0009817B8F080911B0190911C01A0911D01ED
:10030000B0911E019058A109B109820F931FA11D40
:10031000B11D80931B0190931C01A0931D01B0930C
:100320001E01809121018F5F80932101FF91EF9148
:10033000BF91AF919F918F913F912F910F900FBEE1
:100340000F901F901895A62F109281001092850093
:1003500010928400D89AE8E6F0E090819160908352
:10036000EBE6F0E0908190629083813021F48093FD
:100370001A0121E00EC0823021F480931A0124E09A
:1003800008C0833029F485E080931A012AE001C077
:1003900021E01092210110921B0110921C01109279
:1003A0001D0110921E01E22FF0E080912101309199
:1003B0001A0190E0AF01430F511D84179507ACF36C
:1003C0001092210160911B0170911C0180911D010F
:1003D00090911E01A11109C099233CF4909580953C
:1003E000709561957F4F8F4F9F4FE8E6F0E0308129
:1003F0003E7F3083EBE6F0E030813F7D308330E0BC
:1004000040E050E00E949002CA01B9010895E1EC79
:10041000F0E010828093C5006093C40082E0809376
:10042000C00088E1808386E08093C2000895A8958B
:1004300084B7877F84BFE0E6F0E0808188618083B5
:10044000108269E180E00E9407027894E6E6F0E01D
:10045000E080108180EF808300E0C6E6D0E01DC020
:10046000888181508883888180FD03C08EE20E944C
:10047000530060E081E00E94A301683C71058105A2
:1004800091050CF41881683E73408105910524F4B0
:100490000F5F083011F404C000E088818F3000F74E
:1004A0000E947A0083E091E00E945B004E2D50E0B4
:1004B00060E070E08AE00E9436010E947A000F2E10
:1004C000FFE0CF2ED12CE12CF12CF02DC6E6D0E0B0
:1004D0006CED85E00E945201C88261E081E00E94DB
:1004E000A3014B015C011883B701A6018AE00E94B9
:1004F000360189E00E945300B501A4018AE00E9400
:1005000036010E947A008FEFC81AD80AE80AF80A62
:1005100021EFC216D104E104F104D1F6F894FFCF23
:10052000052E97FB1EF400940E94A70257FD07D0EA
:100530000E94AF0207FC03D04EF40C94A702509522
:100540004095309521953F4F4F4F5F4F08959095BF
:100550008095709561957F4F8F4F9F4F0895A1E2D1
:100560001A2EAA1BBB1BFD010DC0AA1FBB1FEE1F2D
:10057000FF1FA217B307E407F50720F0A21BB30B78
:10058000E40BF50B661F771F881F991F1A9469F7F4
:1005900060957095809590959B01AC01BD01CF0150
:0605A0000895F894FFCF5E
:1005A6000D0A0044656661756C74204F53434341E0
:0A05B6004C2076616C756520200072
:00000001FF
