S019000043616C5F415474696E795F34345F3436312E7372656382
S113000040C05AC0F2C458C057C056C060C554C09E
S113001053C0C1C451C050C04FC04EC04DC04CC0ED
S1130020CEC4557365722063616C3F20456E746560
S113003072203120746F2046207468656E20782009
S11300406966204F4B0D0A000D0A44562F57562C53
S11300502070726576696F7573204F534343414C2A
S11300602076616C7565732020000D0A0D0A4361CA
S11300706C6962726174696E6720415474696E7947
S1130080000011241FBECFE5D2E0DEBFCDBF10E0DB
S1130090A0E6B0E0ECEDFBE002C005900D92AC3BB5
S11300A0B107D9F720E0ACEBB0E001C01D92A33E4C
S11300B0B207E1F722D290C5A3CF982F96959575F4
S11300C0880F8A7A982B892F869586958373990F42
S11300D0990F9C7C892B82950895EFDF91E093BF63
S11300E09091BC009923E1F31092BC009BEF9EB960
S11300F0982F9695969590689FB99091BC009923F6
S1130100E1F31092BC009BEF9EB9880F880F880F13
S113011087608FB98091BC008823E1F31092BC0002
S113012013BE08958AB31ABADE9A1DB813BE89EBBA
S113013086BF82E088BF12BE89B7826089BF6E9A8B
S11301406C9A6A9AD59A8FEF8FB98EB90895CF9326
S11301509AB39F789ABB9BB390679BBB1DB89AB721
S113016090619ABF9BB790619BBF90E492BB882338
S113017049F081E49FE12091DB00211107C0019740
S1130180D1F704C08091DB008823E1F38091DB0088
S1130190882331F01092DB0080B38FDFC82F01C0B9
S11301A0C0E09698BFDF8C2FCF9108950F931F93D3
S11301B0CF93DF93FC018081811109C00FC0899125
S11301C0882361F08ADF0C171D07C9F707C08F0168
S11301D084DFE801219608531F4FF1CFDF91CF91BF
S11301E01F910F91089580E690E0E0DF08950F934A
S11301F01F93CF93DF93EC01FC012491222371F030
S11302008C01045C1F4FFE01849167DF2196FE017F
S11302109491992319F00C171D07A9F7DF91CF9139
S11302201F910F9108952F923F924F925F926F9278
S11302307F928F929F92AF92BF92CF92DF92EF9272
S1130240FF920F931F93CF93DF931C012A013B016D
S1130250411551056105704861F52A3019F02031C6
S1130260B9F063C098E3F101908384E3818326E3CA
S1130270228323E323839483858397E3968387836D
S113028081E3808782E381878DE2828713864DC074
S113029080E3F101808381838283838384838583E4
S11302A0868388E387838DE280871186128613868E
S11302B03CC0E101C1010C96F1011192E817F90764
S11302C0E1F77301620177203CF4CC24DD2476014C
S11302D0C418D508E608F70800E010E0822E912C37
S11302E0A12CB12CC701B601A501940121D46883C6
S11302F06A3018F4605D688302C0695C68830F5FCC
S11303001F4FC701B601A501940112D469017A01F6
S11303102196121613061406150624F377202CF4DE
S1130320F101E00FF11F8DE28083DF91CF911F91E6
S11303300F91FF90EF90DF90CF90BF90AF909F9080
S11303408F907F906F905F904F903F902F90089583
S11303500F931F93CF93DF93FC012081222391F00D
S11303603196C0E0D0E0219621912111FCCF209755
S113037049F08C010C0F1D1FF80182918F01ADDE35
S11303802197D1F7DF91CF911F910F910895CF93CA
S1130390DF93CDB7DEB72C970FB6F894DEBF0FBE50
S11303A0CDBF282FCE0101963EDFCE010196D0DFCE
S11303B02C960FB6F894DEBF0FBECDBFDF91CF9160
S11303C0089562BF83BF08B600FEFDCF88B7816081
S11303D088BF13BE0895CF93282FC62F1092D20042
S11303E01092D3001092D4001092D5001092E20023
S11303F01092DE001092DF001092E0001092E100F3
S11304001EBC1DBC1CBC9AB790619ABF9BB790617F
S11304109BBF90E192BB99B7926099BF9091E20023
S11304209217E0F39BB79F7E9BBF949899B79E7FEA
S113043099BF6091D2007091D3008091D4009091C3
S1130440D50030E040E050E073D3CA01B901C111D6
S113045009C055233CF466277727CB01621B730B35
S1130460840B950BCF910895CF93C82F8091BD0035
S11304709091BE006C2F0197A1D38091BD00909103
S1130480BE006C2F02979AD38091BD009091BE005C
S11304906091BF00039792D3CF91089583E690E0D3
S11304A085DE8091BD009091BE0003977FD3482FD5
S11304B050E060E070E08AE06ADF8BE790E076DE8F
S11304C08091BD009091BE00029770D3482F50E0F8
S11304D060E070E08AE05BDF8BE790E067DE8091AC
S11304E0BD009091BE00019761D3482F50E060E0B9
S11304F070E08AE04CDF77DE0895A89584B7877FA3
S113050084BF81B5886181BD11BC85B78F7B85BFF0
S11305101ABA8FEF8BBB17BA8FE088BBE0ECF0E020
S11305208EE790E09183808382E890E093838283D6
S113053086E890E0958384838AE890E097838683B5
S11305408FE890E09187808784E990E093878287A1
S113055089E990E0958784878EE990E0978786877C
S11305608CEF9FE123D3C82F90E09093DD0080931C
S1130570DC008BEF9FE11AD3282F30E03093D900B1
S11305802093D800C23991F1C33909F455C0C13957
S113059009F078C020E034E03093D7002093D600EF
S11305A020E830E03093BE002093BD008B3059F03A
S11305B08C3071F0893099F486E090E09093D1000A
S11305C08093D00065C01092D1001092D00060C01A
S11305D083E090E09093D1008093D00059C087E0ED
S11305E090E09093D1008093D00052C020E038E096
S11305F03093D7002093D60020E031E03093BE0042
S11306002093BD00873019F0883041F00EC081E09E
S113061090E09093D1008093D0003AC084E090E0C1
S11306209093D1008093D00033C087E090E0909302
S1130630D1008093D0002CC020E030E13093D7006B
S11306402093D60020E032E03093BE002093BD001A
S11306508C3019F08D3041F00EC082E090E0909320
S1130660D1008093D00014C085E090E09093D10035
S11306708093D0000DC087E090E09093D1008093E8
S1130680D00006C087E090E09093D1008093D00022
S113069049DD8FEF90E09BBD8ABD789480E057DD03
S11306A081B78093BF00D1B7B1B680EF81BFC0E0FE
S11306B013E018C081B781B7612F2ED2911102C007
S11306C08EE20BDD60E081E086DE683E73408105EA
S11306D091050CF05BC1D1B7CF5F81B7825081BF68
S11306E0C43019F081B78F3028F77DDDE0ECF0E0FD
S11306F08EE790E09183808382E890E09383828305
S113070086E890E0958384838AE890E097838683E3
S11307108FE890E09187808784E990E093878287CF
S113072089E990E0958784878EE990E097878687AA
S11307308CEF9FE13BD2C82F90E09093DD00809333
S1130740DC008BEF9FE132D2282F30E03093D900C8
S11307502093D800C23991F1C33909F455C0C13985
S113076009F078C020E034E03093D7002093D6001D
S113077020E830E03093BE002093BD008B3059F068
S11307808C3071F0893099F486E090E09093D10038
S11307908093D00065C01092D1001092D00060C048
S11307A083E090E09093D1008093D00059C087E01B
S11307B090E09093D1008093D00052C020E038E0C4
S11307C03093D7002093D60020E031E03093BE0070
S11307D02093BD00873019F0883041F00EC081E0CD
S11307E090E09093D1008093D0003AC084E090E0F0
S11307F09093D1008093D00033C087E090E0909331
S1130800D1008093D0002CC020E030E13093D70099
S11308102093D60020E032E03093BE002093BD0048
S11308208C3019F08D3041F00EC082E090E090934E
S1130830D1008093D00014C085E090E09093D10063
S11308408093D0000DC087E090E09093D100809316
S1130850D00006C087E090E09093D1008093D00050
S11308608AE690E0C4DCE091D000F091D100EE0F74
S1130870FF1FE054FF4F8081918198DC8091D0006C
S11308809091D100079709F4FFCF88E490E0AFDCA2
S11308904091BF0050E060E070E08AE078DD8BE7D3
S11308A090E084DC4D2F50E060E070E08AE06FDD82
S11308B08BE790E07BDC8091BD009091BE000297B5
S11308C075D1482F50E060E070E08AE060DD8BDC99
S11308D0C1EFCD0F0D2F10E00F501109689499242A
S11308E094F89D0EA12C812C6CED85E06ADDC1BFCE
S11308F061E082E070DD6B017C01DC01CB01885199
S11309009C4FAF4FBF4F813D9740A105B10530F4D7
S1130910A39481E0A81203C081B601C0A12CD1BF69
S11309204A2D50E060E070E080E131DD89E0D5DB04
S1130930A801012E000C660B770B8AE028DD89E004
S1130940CCDBB701A6018AE022DD4DDCCF5F0F5F6F
S11309501F4FC911C9CF82E290E049DC80E0F7DB88
S1130960883781F09FEC980F9A3010F098EC980F2C
S1130970B82CB90E4B2D50E060E070E08AE007DD42
S113098032DCECCF8B2D70DD89DDFFCF81B7825057
S113099081BFC0E0A7CE1F920F920FB60F92112411
S11309A08F93D59B03C089EB86BF02C089EB86BFBA
S11309B012BE8F910F900FBE0F901F9018951F922B
S11309C00F920FB60F9211248F93769AD59B04C081
S11309D081E08093BC0003C081E08093DB008F91B1
S11309E00F900FBE0F901F9018951F920F920FB685
S11309F00F9211242F933F934F935F936F937F93A1
S1130A008F939F93AF93BF93949B3CC08EB58111FA
S1130A100DC01092DE001092DF001092E0001092E0
S1130A20E1001DBC1CBC82E08EBD42C01EBC809196
S1130A30E2008F5F8093E2004091D2005091D30096
S1130A406091D4007091D5008091DE009091DF0018
S1130A50A091E000B091E1002CB53DB5840F951F45
S1130A60A61FB71F9058A109B109820F931FA11D9A
S1130A70B11D8093D2009093D300A093D400B0937F
S1130A80D50016C0CE9914C012BE8CE586BF81E095
S1130A9083BF82E088BF89B7826089BF6E9A6C9AEF
S1130AA06A9A1092DB0087EF8EB98BB78F7E8BBF6B
S1130AB0BF91AF919F918F917F916F915F914F9172
S1130AC03F912F910F900FBE0F901F9018951F927A
S1130AD00F920FB60F9211248F939F93AF93BF93EE
S1130AE08091DE009091DF00A091E000B091E100E0
S1130AF09F5FAF4FBF4F8093DE009093DF00A093C2
S1130B00E000B093E100BF91AF919F918F910F905E
S1130B100FBE0F901F901895991B79E004C0991F80
S1130B20961708F0961B881F7A95C9F78095089543
S1130B30052E97FB16F400940FD057FD05D014D062
S1130B4007FC02D046F408C0509540953095219595
S1130B503F4F4F4F5F4F08959095809570956195E5
S1130B607F4F8F4F9F4F0895A1E21A2EAA1BBB1BE4
S1130B70FD010DC0AA1FBB1FEE1FFF1FA217B30765
S1130B80E407F50720F0A21BB30BE40BF50B661F7B
S1130B90771F881F991F1A9469F76095709580953F
S1130BA090959B01AC01BD01CF010895E199FECF61
S1130BB09FBB8EBBE09A99278DB30895262FE199A8
S1130BC0FECF1CBA9FBB8EBB2DBB0FB6F894E29A26
S10F0BD0E19A0FBE01960895F894FFCF3F
S1130BDC0D0A000D0A56616C756573207361766598
S1130BEC6420746F20454550524F4D202000323400
S1130BFC4100343441003834410032363141003440
S1130C0C36314100383631410032362F4C003F200A
S1130C1C556E6B6E6F776E20646576696365212003
S10F0C2C4F702068616C7465642E000039
S9030000FC
