:100000000C9434000C9451000C9451000C94590140
:100010000C9451000C9451000C9451000C9451001C
:100020000C9451000C9451000C9451000C9451000C
:100030000C9451000C9451000C9451000C945100FC
:100040000C9451000C9451000C9451000C945100EC
:100050000C9451000C9451000C9451000C945100DC
:100060000C9451000C94510011241FBECFEFD8E026
:10007000DEBFCDBF11E0A0E0B1E0E0ECF5E002C0F2
:1000800005900D92AA33B107D9F721E0AAE3B1E0B8
:1000900001C01D92A334B207E1F70E9417020C942D
:1000A000DE020C940000E0ECF0E0908195FFFDCFC3
:1000B0008093C60008950F931F93CF93DF93FC01A5
:1000C000808181110AC011C08991882371F00E943A
:1000D00053000C171D07C1F708C08F010E94530081
:1000E000E801219608531F4FEFCFDF91CF911F9169
:1000F0000F91089580E091E00E945B0008952F9297
:100100003F924F925F926F927F928F929F92AF92A7
:10011000BF92CF92DF92EF92FF920F931F93CF93F4
:10012000DF931C012A013B0141155105610570480F
:1001300061F52A3019F02031B9F065C098E3F1017A
:10014000908384E3818326E3228323E323839483C0
:10015000858397E39683878381E3808782E3818722
:100160008DE2828713864FC080E3F1018083818313
:100170008283838384838583868388E387838DE278
:1001800080871186128613863EC0E101C1010C965C
:10019000F1011192E817F907E1F773016201772085
:1001A0003CF4CC24DD247601C418D508E608F70811
:1001B00000E010E0822E912CA12CB12CC701B601D9
:1001C000A50194010E949D0268836A3018F4605D65
:1001D000688302C0695C68830F5F1F4FC701B60167
:1001E000A50194010E949D0269017A0121961216CF
:1001F00013061406150614F377202CF4F101E00F12
:10020000F11F8DE28083DF91CF911F910F91FF90BD
:10021000EF90DF90CF90BF90AF909F908F907F90A6
:100220006F905F904F903F902F9008950F931F9382
:10023000CF93DF93FC012081222399F03196C0E017
:10024000D0E0219621912111FCCF209751F08C0113
:100250000C0F1D1FF80182918F010E9453002197FE
:10026000C9F7DF91CF911F910F910895CF93DF933D
:10027000CDB7DEB72C970FB6F894DEBF0FBECDBF5B
:10028000282FCE0101960E947F00CE0101960E9488
:1002900016012C960FB6F894DEBF0FBECDBFDF91CE
:1002A000CF91089566BD85BDA89BFECFA89A15BCC9
:1002B00008951F920F920FB60F9211242F933F9320
:1002C0008F939F93AF93BF93EF93FF9380918100A0
:1002D000811104C082E08093810028C0E4E8F0E04E
:1002E00020813181118210829091410180913A01E7
:1002F0009817B8F080913B0190913C01A0913D018D
:10030000B0913E019058A109B109820F931FA11D20
:10031000B11D80933B0190933C01A0933D01B093AC
:100320003E01809141018F5F80934101FF91EF91E8
:10033000BF91AF919F918F913F912F910F900FBEE1
:100340000F901F901895A62F109281001092850093
:1003500010928400D89AE8E6F0E090819160908352
:10036000EBE6F0E0908190629083813021F48093FD
:100370003A0121E00EC0823021F480933A0124E05A
:1003800008C0833029F485E080933A012AE001C057
:1003900021E01092410110923B0110923C01109219
:1003A0003D0110923E01E22FF0E080914101309139
:1003B0003A0190E0AF01430F511D84179507ACF34C
:1003C0001092410160913B0170913C0180913D018F
:1003D00090913E01A11109C099233CF4909580951C
:1003E000709561957F4F8F4F9F4FE8E6F0E0308129
:1003F0003E7F3083EBE6F0E030813F7D308330E0BC
:1004000040E050E00E949D02CA01B9010895E1EC6C
:10041000F0E010828093C5006093C40082E0809376
:10042000C00088E1808386E08093C2000895A8958B
:1004300084B7877F84BFE0E6F0E0808188618083B5
:10044000108269E180E00E9407027894E6E6F0E01D
:10045000F080D08180EF8083C0E006E610E01FC00E
:10046000F801808181508083808180FD03C08EE20D
:100470000E94530060E081E00E94A301683C710586
:100480008105910514F4F801D081683E734081051F
:10049000910524F4CF5FC83011F405C0C0E0F80125
:1004A00080818F30E8F60E947A0083E091E00E941C
:1004B0005B004F2D50E060E070E08AE00E94360162
:1004C0000E947A00C6EFCD0F0D2F10E00A501109DF
:1004D0000F2EF5E1DF2EF02DDD0E0F2EF6E6EF2EBE
:1004E000F12CF02DF701C08361E083E00E94A301AD
:1004F0004B015C01F701D083A801012E000C660BB3
:10050000770B8AE00E94360189E00E945300B50112
:10051000A4018AE00E9436010E947A0067EB85E020
:100520000E945201CF5F0F5F1F4FCD11DBCFF894B8
:100530008AE191E00E945B00FFCF052E97FB1EF43D
:1005400000940E94B40257FD07D00E94BC0207FC31
:1005500003D04EF40C94B4025095409530952195FB
:100560003F4F4F4F5F4F08959095809570956195DF
:100570007F4F8F4F9F4F0895A1E21A2EAA1BBB1BDE
:10058000FD010DC0AA1FBB1FEE1FFF1FA217B3075F
:10059000E407F50720F0A21BB30BE40BF50B661F75
:1005A000771F881F991F1A9469F760957095809539
:1005B00090959B01AC01BD01CF010895F894FFCF48
:1005C0000D0A0044656661756C74204F53434341C6
:1005D0004C2076616C7565202000526570656174F1
:1005E0002063616C207573696E67205874616C209C
:0A05F000616C676F726974686D003A
:00000001FF
