:1000000010C02AC08AC328C027C026C025C024C06B
:1000100023C05EC321C020C01FC01EC01DC01CC0A5
:1000200066C311241FBECFE5D1E0DEBFCDBF10E017
:10003000A0E6B0E0EEE8F7E002C005900D92A43D26
:10004000B107D9F720E0A4EDB0E001C01D92A83FB0
:10005000B207E1F7FAD099C3D3CF982F969595754B
:10006000880F8A7A982B892F869586958373990FA6
:10007000990F9C7C892B82950895EFDF91E093BFC7
:100080009091D4009923E1F31092D4009BEF9EB994
:10009000982F9695969590689FB99091D400992342
:1000A000E1F31092D4009BEF9EB9880F880F880F60
:1000B00087608FB98091D4008823E1F31092D40037
:1000C00013BE08958AB31ABADE9A1DB882EC86BFB1
:1000D00082E088BF12BE89B7826089BF6E9A6C9A2F
:1000E0006A9AD59A8FEF8FB98EB908958AB38F78AF
:1000F0008ABB8BB380678BBB1DB88AB780618ABF10
:100100008BB780618BBF969A8091F1008823E1F3D1
:100110001092F10012BED6DF80B39FDF0895CF9218
:10012000DF92EF92FF920F931F93CF93DF937C01A7
:100130008AB38F788ABB8BB380678BBB1DB88AB7B5
:1001400080618ABF8BB780618BBF969A8091F100E6
:100150008823E1F31092F10080B37FDFF7018193F0
:100160008F0112BECC24C394D12CC0E4DFE11DB8B2
:100170008AB780618ABF8BB780618BBF969A809166
:10018000F100811102C02197D0F712BE8091F100D9
:10019000813079F480B361DFF80181938F0110928F
:1001A000F100FFEFCF1ADF0A8AE0C816D104F9F692
:1001B00004C0F701EC0DFD1D108284DFDF91CF91AB
:1001C0001F910F91FF90EF90DF90CF9008950F93C4
:1001D0001F93CF93DF93FC018081811109C00FC071
:1001E0008991882361F049DF0C171D07C9F707C003
:1001F0008F0143DFE801219608531F4FF1CFDF91B4
:10020000CF911F910F91089581ED90E0E0DF089567
:100210000F931F93CF93DF93FC018081811109C05D
:100220000FC08991882361F028DF0C171D07C9F7DB
:1002300007C08F0122DFE801219608531F4FF1CF3D
:10024000DF91CF911F910F910895CF93DF93CDB799
:10025000DEB72B970FB6F894DEBF0FBECDBFA895C3
:1002600084B7877F84BF81B5886181BD11BC85B7A4
:100270008F7B85BF1ABA8FEF8BBB17BA8FE088BB15
:10028000EAEDF0E082E690E09183808387E690E0FB
:10029000938382838CE690E09583848382E790E069
:1002A0009783868388E790E0918780878CE790E04A
:1002B0009387828780E890E095878487E2EFF0E07B
:1002C00084E890E0918380838CE890E0938382833C
:1002D000E0906000F0906100C701049740D2182FB1
:1002E00090E09093F7008093F600C701059737D20E
:1002F000282F30E03093EF002093EE00143909F4FA
:1003000052C028F4123951F0133989F1A9C01539B6
:1003100009F465C0163909F48BC0A2C020E038E0AA
:100320003093ED002093EC0020E031E03093D600D4
:100330002093D500873071F08A3019F0853009F0AC
:100340008FC01092EB001092EA001092D800109229
:10035000D70086C086E090E09093EB008093EA009F
:1003600081E090E09093D8008093D70079C020E09E
:1003700030E13093ED002093EC0020E032E0309348
:10038000D6002093D5008A3019F08F3009F068C06C
:1003900081E090E09093EB008093EA001092D80007
:1003A0001092D7005DC020E030E23093ED00209342
:1003B000EC0020E032E03093D6002093D500863068
:1003C00019F08B3009F04CC082E090E09093EB0084
:1003D0008093EA001092D8001092D70041C020E02C
:1003E00030E43093ED002093EC0020E034E03093D3
:1003F000D6002093D5008F3029F0843119F0823057
:1004000079F50BC083E090E09093EB008093EA00D5
:100410001092D8001092D70023C085E090E090930E
:10042000EB008093EA001092D8001092D70018C019
:1004300020E030E83093ED002093EC0020E038E03D
:100440003093D6002093D500893051F484E090E0B9
:100450009093EB008093EA001092D8001092D7009E
:1004600031DE61B78091D5009091D60003977FD19E
:10047000E090D500F090D600C701029770D1182FF8
:1004800080EF810F803E30F4C701019768D11813C7
:1004900001C011BF7894CE01019641DEEAEDF0E093
:1004A00082E690E09183808387E690E09383828365
:1004B0008CE690E09583848382E790E0978386833F
:1004C00088E790E0918780878CE790E09387828728
:1004D00080E890E095878487E2EFF0E084E890E0A0
:1004E000918380838CE890E093838283E090600026
:1004F000F0906100C701049732D1182F90E09093DB
:10050000F7008093F600C701059729D1282F30E026
:100510003093EF002093EE00143909F452C028F410
:10052000123951F0133989F1A9C0153909F465C0A0
:10053000163909F48BC0A2C020E038E03093ED00FA
:100540002093EC0020E031E03093D6002093D500DA
:10055000873071F08A3019F0853009F08FC0109221
:10056000EB001092EA001092D8001092D70086C0DB
:1005700086E090E09093EB008093EA0081E090E0C9
:100580009093D8008093D70079C020E030E1309379
:10059000ED002093EC0020E032E03093D600209371
:1005A000D5008A3019F08F3009F068C081E090E002
:1005B0009093EB008093EA001092D8001092D7003D
:1005C0005DC020E030E23093ED002093EC0020E0AD
:1005D00032E03093D6002093D500863019F08B306E
:1005E00009F04CC082E090E09093EB008093EA0029
:1005F0001092D8001092D70041C020E030E4309330
:10060000ED002093EC0020E034E03093D6002093FE
:10061000D5008F3029F0843119F0823079F50BC084
:1006200083E090E09093EB008093EA001092D80072
:100630001092D70023C085E090E09093EB00809368
:10064000EA001092D8001092D70018C020E030E8DD
:100650003093ED002093EC0020E038E03093D6009A
:100660002093D500893051F484E090E09093EB0022
:100670008093EA001092D8001092D70084E990E0AD
:10068000A6DDE091D700F091D800EE0FFF1FEE50ED
:10069000FF4F808191819BDDE091EA00F091EB00BA
:1006A000EE0FFF1FE652FF4F8081918190DDACDDA0
:1006B0008CEA90E08CDD01C0E0DC18DD8E37E1F7DC
:1006C000A3DDCE0101962BDDCE010196A1DDF9CF90
:1006D0001F920F920FB60F9211248F9382EC86BF58
:1006E00012BE8F910F900FBE0F901F9018951F9202
:1006F0000F920FB60F9211248F93769AD59B04C058
:1007000081E08093D40003C081E08093F1008F9159
:100710000F900FBE0F901F9018951F920F920FB65B
:100720000F9211248F93CE9914C012BE81E686BF1A
:1007300081E083BF82E088BF89B7826089BF6E9AFB
:100740006C9A6A9A1092F10087EF8EB98BB78F7E00
:100750008BBF8F910F900FBE0F901F901895E1994E
:10076000FECF1FBA8EBBE09A99278DB30895262F2E
:10077000E199FECF1CBA1FBA8EBB2DBB0FB6F89401
:0E078000E29AE19A0FBE01960895F894FFCF19
:10078E00002034382F500038382F50003136382F93
:10079E0050003332382F500036343400333241009B
:1007AE003434410041746D656761200041547469B1
:1007BE006E7920000D0A0D0A50726F6772616D20FE
:1007CE0072756E6E696E67206F6E20000D0A45633E
:1007DE00686F2073696E676C65206B6579707265E2
:1007EE0073736573207E20746F206573636170650B
:0407FE002E0D0A00B2
:00000001FF
