:1000000010C02AC03FC428C027C026C025C024C0B5
:1000100023C00EC421C020C01FC01EC01DC01CC0F4
:100020001BC411241FBECFE5D1E0DEBFCDBF11E060
:10003000A0E6B0E0EEEFF9E002C005900D92A4302A
:10004000B107D9F721E0A4E0B1E001C01D92A032D0
:10005000B207E1F711D2D1C4D3CF982F96959575F9
:10006000880F8A7A982B892F869586958373990FA6
:10007000990F9C7C892B82950895EFDF91E093BFC7
:10008000909104019923E1F3109204019BEF9EB932
:10009000982F9695969590689FB990910401992311
:1000A000E1F3109204019BEF9EB9880F880F880F2F
:1000B00087608FB9809104018823E1F310920401D5
:1000C00013BE08958AB31ABADE9A1DB813BE8EE421
:1000D00086BF82E088BF12BE89B7826089BF6E9AF0
:1000E0006C9A6A9AD59A8FEF8FB98EB90895CF938B
:1000F0009AB39F789ABB9BB390679BBB1DB89AB786
:1001000090619ABF9BB790619BBF969A882349F0F4
:1001100081E49FE120911C01211107C00197D1F7D3
:1001200004C080911C018823E1F380911C01882385
:1001300031F010921C0180B390DFC82F01C0C0E0E5
:10014000C1DF8C2FCF9108950F931F93CF93DF932F
:10015000FC018081811109C00FC08991882361F061
:100160008CDF0C171D07C9F707C08F0186DFE80178
:10017000219608531F4FF1CFDF91CF911F910F911F
:10018000089581E091E0E0DF08952F923F924F9231
:100190005F926F927F928F929F92AF92BF92CF9217
:1001A000DF92EF92FF920F931F93CF93DF931C0187
:1001B0002A013B01411551056105704861F52A305E
:1001C00019F02031B9F063C098E3F101908384E322
:1001D000818326E3228323E323839483858397E328
:1001E0009683878381E3808782E381878DE282879C
:1001F00013864DC080E3F1018083818382838383F2
:1002000084838583868388E387838DE28087118654
:10021000128613863CC0E101C1010C96F1011192D6
:10022000E817F907E1F77301620177203CF4CC2469
:10023000DD247601C418D508E608F70800E010E0D0
:10024000822E912CA12CB12CC701B601A5019401DD
:1002500080D368836A3018F4605D688302C0695C8B
:1002600068830F5F1F4FC701B601A501940171D3C9
:1002700069017A012196121613061406150624F355
:1002800077202CF4F101E00FF11F8DE28083DF91E4
:10029000CF911F910F91FF90EF90DF90CF90BF9083
:1002A000AF909F908F907F906F905F904F903F9016
:1002B0002F9008950F931F93CF93DF93FC0120811C
:1002C000222391F03196C0E0D0E0219621912111B6
:1002D000FCCF209749F08C010C0F1D1FF801829173
:1002E0008F01CBDE2197D1F7DF91CF911F910F9135
:1002F0000895CF93DF93CDB7DEB72C970FB6F89460
:10030000DEBF0FBECDBF282FCE0101963EDFCE014E
:100310000196D0DF2C960FB6F894DEBF0FBECDBF8E
:10032000DF91CF91089562BF83BF08B600FEFDCF75
:1003300088B7816088BF13BE0895A62F1EBC1DBC60
:100340001CBC9AB790619ABF9BB790619BBF949A6F
:10035000813021F48093120121E00EC0823021F41B
:100360008093120124E008C0833029F485E0809353
:1003700012012AE001C021E010921D011092130128
:10038000109214011092150110921601E22FF0E064
:1003900080911D013091120190E0AF01430F511D7A
:1003A00084179507ACF310921D01609113017091B1
:1003B00014018091150190911601A11109C0992392
:1003C0003CF490958095709561957F4F8F4F9F4F2E
:1003D0003BB73F7E3BBF949830E040E050E0B9D25D
:1003E000CA01B9010895CF93C82F8091050190915A
:1003F00006016C2F0197F3D28091050190910601BF
:100400006C2F0297ECD280910501909106016091CA
:1004100007010397E4D2CF91089580E690E094DE3F
:1004200080910501909106010397D1D2482F50E0A9
:1004300060E070E08AE05DDF88E790E085DE809133
:100440000501909106010297C2D2482F50E060E06A
:1004500070E08AE04EDF88E790E076DE809105016B
:10046000909106010197B3D2482F50E060E070E010
:100470008AE03FDF86DE0895A89584B7877F84BF32
:1004800081B5886181BD11BC85B78F7B85BF1ABAE4
:100490008FEF8BBB17BA8FE088BBE8E0F1E08BE70A
:1004A00090E09183808380E890E09383828384E866
:1004B00090E09583848388E890E0978386838CEF2F
:1004C0009FE185D2C82F90E090931F0180931E0179
:1004D0008BEF9FE17CD2282F30E030931A012093DC
:1004E0001901C239F9F0C339C9F1C13909F052C053
:1004F00020E034E0309318012093170120E830E029
:100500003093060120930501893029F410921101DE
:100510001092100145C083E090E090931101809308
:1005200010013EC020E038E03093180120931701FD
:1005300020E031E03093060120930501873039F443
:1005400081E090E0909311018093100129C083E035
:1005500090E0909311018093100122C020E030E1DF
:10056000309318012093170120E032E03093060108
:10057000209305018C3039F482E090E090931101D2
:10058000809310010DC083E090E09093110180935F
:10059000100106C083E090E0909311018093100158
:1005A00091DD789480E0A3DD81B780930701D1B716
:1005B000B1B680EF81BFC0E013E018C081B781B74A
:1005C000612FBBD1911102C08EE257DD60E081E066
:1005D000B4DE683E7340810591050CF024C1D1B7AB
:1005E000CF5F81B7825081BFC43019F081B78F309F
:1005F00028F7C7DDE8E0F1E08BE790E091838083A6
:1006000080E890E09383828384E890E095838483FC
:1006100088E890E0978386838CEF9FE1D8D1C82F3C
:1006200090E090931F0180931E018BEF9FE1CFD14B
:10063000282F30E030931A0120931901C239F9F0C4
:10064000C339C9F1C13909F052C020E034E0309318
:1006500018012093170120E830E030930601209321
:100660000501893029F4109211011092100145C042
:1006700083E090E090931101809310013EC020E050
:1006800038E0309318012093170120E031E03093D7
:10069000060120930501873039F481E090E09093C2
:1006A00011018093100129C083E090E09093110123
:1006B0008093100122C020E030E130931801209394
:1006C000170120E032E030930601209305018C30C1
:1006D00039F482E090E090931101809310010DC0F5
:1006E00083E090E0909311018093100106C083E0B5
:1006F00090E0909311018093100185EA90E024DD51
:10070000E0911001F0911101EE0FFF1FE85FFE4F25
:100710008081918119DD80911001909111010397E1
:1007200009F4FFCF8CEB90E00FDD4091070150E022
:1007300060E070E08AE0DDDD88E790E005DD4D2FC8
:1007400050E060E070E08AE0D4DD88E790E0FCDC17
:100750008091050190910601029739D1482F50E010
:1007600060E070E08AE0C5DD0CDDC1EFCD0F0D2F3C
:1007700010E00F5011096894992494F89D0EA12C53
:10078000812C6CED85E0CFDDC1BF61E081E0D5DD7E
:100790006B017C01DC01CB0188519C4FAF4FBF4FF7
:1007A000813D9740A105B10530F4A39481E0A812E2
:1007B00003C081B601C0A12CD1BF4A2D50E060E03A
:1007C00070E080E196DD89E058DCA801012E000C84
:1007D000660B770B8AE08DDD89E04FDCB701A6015F
:1007E0008AE087DDCEDCCF5F0F5F1F4FC911C9CF15
:1007F0008EED90E0A9DC80E07ADC883781F09FEC18
:10080000980F9A3010F098EC980FB82CB90E4B2D29
:1008100050E060E070E08AE06CDDB3DCECCF8B2D63
:10082000E2DDFBDDFFCF81B7825081BFC0E0DECECD
:100830001F920F920FB60F9211248F93D59B03C076
:100840008EE486BF02C08AE486BF12BE8F910F90ED
:100850000FBE0F901F9018951F920F920FB60F9218
:1008600011248F93769AD59B04C081E08093040174
:1008700003C081E080931C018F910F900FBE0F90F9
:100880001F9018951F920F920FB60F9211242F935D
:100890003F938F939F93AF93BF93D59B2DC08EB5FE
:1008A000811103C082E08EBD3DC02CB53DB51DBC9D
:1008B0001CBC90911D01809112019817B8F0809195
:1008C000130190911401A0911501B0911601905857
:1008D000A109B109820F931FA11DB11D80931301BE
:1008E00090931401A0931501B093160180911D01FE
:1008F0008F5F80931D0116C0CE9914C012BE85E291
:1009000086BF81E083BF82E088BF89B7826089BFEC
:100910006E9A6C9A6A9A10921C0187EF8EB98BB707
:100920008F7E8BBFBF91AF919F918F913F912F9100
:100930000F900FBE0F901F901895991B79E004C07F
:10094000991F961708F0961B881F7A95C9F780950E
:100950000895052E97FB16F400940FD057FD05D08F
:1009600014D007FC02D046F408C05095409530954D
:1009700021953F4F4F4F5F4F08959095809570950B
:1009800061957F4F8F4F9F4F0895A1E21A2EAA1BAA
:10099000BB1BFD010DC0AA1FBB1FEE1FFF1FA2172F
:1009A000B307E407F50720F0A21BB30BE40BF50B2C
:1009B000661F771F881F991F1A9469F760957095B5
:1009C000809590959B01AC01BD01CF010895E199FF
:1009D000FECF1FBA8EBBE09A99278DB30895262FBC
:1009E000E199FECF1CBA1FBA8EBB2DBB0FB6F8948F
:0E09F000E29AE19A0FBE01960895F894FFCFA7
:1009FE000D0A56616C75657320736176656420749B
:100A0E006F20454550524F4D20200032362F4C005E
:100A1E0034344100383441003F20556E6B6E6F7791
:100A2E006E2064657669636521204F702068616C65
:100A3E007465642E000D0A0D0A43616C6962726161
:100A4E0074696E6720415474696E79000D0A4456BC
:100A5E002F57562C2070726576696F7573204F5321
:100A6E004343414C2076616C7565732020005573AD
:100A7E0065722063616C3F20456E74657220312073
:100A8E00746F2046207468656E2078206966204F4A
:040A9E004B0D0A00F2
:00000001FF
