:1000000010C02AC0EEC428C027C026C025C024C006
:1000100023C0C2C421C020C01FC01EC01DC01CC040
:10002000CAC411241FBECFE5D1E0DEBFCDBF10E0B2
:10003000A0E6B0E0ECE5FBE002C005900D92AC3F1D
:10004000B107D9F721E0ACEFB0E001C01D92A632B4
:10005000B207E1F7FBD180C5D3CF982F9695957560
:10006000880F8A7A982B892F869586958373990FA6
:10007000990F9C7C892B82950895EFDF91E093BFC7
:100080009091FC009923E1F31092FC009BEF9EB944
:10009000982F9695969590689FB99091FC0099231A
:1000A000E1F31092FC009BEF9EB9880F880F880F38
:1000B00087608FB98091FC008823E1F31092FC00E7
:1000C00013BE08958AB31ABADE9A1DB882EC86BFB1
:1000D00082E088BF12BE89B7826089BF6E9A6C9A2F
:1000E0006A9AD59A8FEF8FB98EB908958AB38F78AF
:1000F0008ABB8BB380678BBB1DB88AB780618ABF10
:100100008BB780618BBF969A80911E018823E1F3A3
:1001100010921E01D7DF80B3A0DF08950F931F93C5
:10012000CF93DF93FC018081811109C00FC08991B9
:10013000882361F0A2DF0C171D07C9F707C08F01E4
:100140009CDFE801219608531F4FF1CFDF91CF913B
:100150001F910F91089589EF90E0E0DF08952F92AD
:100160003F924F925F926F927F928F929F92AF9247
:10017000BF92CF92DF92EF92FF920F931F93CF9394
:10018000DF931C012A013B014115510561057048AF
:1001900061F52A3019F02031B9F063C098E3F1011C
:1001A000908384E3818326E3228323E32383948360
:1001B000858397E39683878381E3808782E38187C2
:1001C0008DE2828713864DC080E3F10180838183B5
:1001D0008283838384838583868388E387838DE218
:1001E00080871186128613863CC0E101C1010C96FE
:1001F000F1011192E817F907E1F773016201772025
:100200003CF4CC24DD247601C418D508E608F708B0
:1002100000E010E0822E912CA12CB12CC701B60178
:10022000A501940145D468836A3018F4605D688341
:1002300002C0695C68830F5F1F4FC701B601A5014B
:10024000940136D469017A01219612161306140618
:10025000150624F377202CF4F101E00FF11F8DE255
:100260008083DF91CF911F910F91FF90EF90DF90EE
:10027000CF90BF90AF909F908F907F906F905F9046
:100280004F903F902F9008950F931F93CF93DF933C
:10029000FC012081222391F03196C0E0D0E021962C
:1002A00021912111FCCF209749F08C010C0F1D1FCB
:1002B000F80182918F01E1DE2197D1F7DF91CF9193
:1002C0001F910F910895CF93DF93CDB7DEB72C9791
:1002D0000FB6F894DEBF0FBECDBF282FCE0101961A
:1002E0003EDFCE010196D0DF2C960FB6F894DEBF2C
:1002F0000FBECDBFDF91CF91089562BF83BF08B617
:1003000000FEFDCF88B7816088BF13BE0895A62F79
:100310001EBC1DBC1CBC9AB790619ABF9BB7906174
:100320009BBF949A813021F48093140121E00EC088
:10033000823021F48093140124E008C0833029F432
:1003400085E0809314012AE001C021E010921F0192
:1003500010921501109216011092170110921801B7
:10036000E22FF0E080911F013091140190E0AF0185
:10037000430F511D84179507ACF310921F01609134
:100380001501709116018091170190911801A1112A
:1003900009C099233CF490958095709561957F4FA5
:1003A0008F4F9F4F3BB73F7E3BBF949830E040E07C
:1003B00050E07ED3CA01B9010895CF93C82F809130
:1003C000FD009091FE006C2F0197B8D38091FD0045
:1003D0009091FE006C2F0297B1D38091FD00909117
:1003E000FE00609101010397A9D3CF91089580E6A3
:1003F00090E094DE8091FD009091FE00019796D3ED
:10040000482F50E060E070E08AE05DDF88E790E030
:1004100085DE8091FD009091FE00029787D3482FE2
:1004200050E060E070E08AE04EDF88E790E076DE42
:100430008091FD009091FE00039778D3482F50E003
:1004400060E070E08AE03FDF86DE0895A89584B71B
:10045000877F84BF81B5886181BD11BC85B78F7BE3
:1004600085BF1ABA8FEF8BBB17BA8FE088BBE2E06B
:10047000F1E08BE790E09183808380E890E09383C4
:10048000828385E890E0958384838BE890E097836E
:10049000868381E990E09187808785E990E0938762
:1004A000828789E990E095878487E0E2F1E08DE931
:1004B00090E09183808385EA90E0938382838CEF40
:1004C0009FE134D3C82F90E09093250180932401BD
:1004D0008BEF9FE12BD3282F30E030931C0120932A
:1004E0001B01C43909F452C028F4C23951F0C33990
:1004F00089F1A9C0C53909F465C0C63909F48BC0B2
:10050000A2C020E038E030931A012093190120E0C6
:1005100031E03093FE002093FD00873071F08A3087
:1005200019F0853009F08FC010921301109212015A
:10053000109200011092FF0086C086E090E0909338
:1005400013018093120181E090E090930001809369
:10055000FF0079C020E030E130931A0120931901A7
:1005600020E032E03093FE002093FD008A3019F045
:100570008F3009F068C081E090E090931301809380
:100580001201109200011092FF005DC020E030E2E5
:1005900030931A012093190120E032E03093FE00DD
:1005A0002093FD00863019F08B3009F04CC082E0BA
:1005B00090E0909313018093120110920001109229
:1005C000FF0041C020E030E430931A01209319016C
:1005D00020E034E03093FE002093FD008F3029F0BE
:1005E000843119F0823079F50BC083E090E090936C
:1005F000130180931201109200011092FF0023C09A
:1006000085E090E090931301809312011092000115
:100610001092FF0018C020E030E830931A012093B8
:10062000190120E038E03093FE002093FD0089306E
:1006300051F484E090E090931301809312011092A2
:1006400000011092FF003EDD789481B78093010194
:10065000D1B7B1B680EF81BFC0E013E01EC081B753
:1006600081B7612F19D2911102C08EE206DD60E0E0
:1006700081E04DDE643F21E07207810591050CF4B5
:10068000D1B7683E7340810591050CF080C1CF5F02
:1006900081B7825081BFC43019F081B78F30F8F62E
:1006A0005ADDE2E0F1E08BE790E09183808380E81F
:1006B00090E09383828385E890E0958384838BE840
:1006C00090E09783868381E990E09187808785E930
:1006D00090E09387828789E990E095878487E0E2BC
:1006E000F1E08DE990E09183808385EA90E0938347
:1006F00082838CEF9FE11AD2C82F90E0909325015E
:10070000809324018BEF9FE111D2282F30E03093AA
:100710001C0120931B01C43909F452C028F4C239CA
:1007200051F0C33989F1A9C0C53909F465C0C6398A
:1007300009F48BC0A2C020E038E030931A01209366
:10074000190120E031E03093FE002093FD00873056
:1007500071F08A3019F0853009F08FC010921301C2
:1007600010921201109200011092FF0086C086E0E4
:1007700090E0909313018093120181E090E09093B8
:1007800000018093FF0079C020E030E130931A012E
:100790002093190120E032E03093FE002093FD0009
:1007A0008A3019F08F3009F068C081E090E09093B2
:1007B000130180931201109200011092FF005DC09E
:1007C00020E030E230931A012093190120E032E05A
:1007D0003093FE002093FD00863019F08B3009F035
:1007E0004CC082E090E0909313018093120110922C
:1007F00000011092FF0041C020E030E430931A0164
:100800002093190120E034E03093FE002093FD0096
:100810008F3029F0843119F0823079F50BC083E0F4
:1008200090E09093130180931201109200011092B6
:10083000FF0023C085E090E09093130180931201A4
:10084000109200011092FF0018C020E030E83093B1
:100850001A012093190120E038E03093FE00209324
:10086000FD00893051F484E090E09093130180936F
:100870001201109200011092FF008DEA90E04EDC10
:10088000E091FF00F0910001EE0FFF1FE05EFE4FD0
:100890008081918143DCE0911201F0911301EE0F10
:1008A000FF1FEE5FFE4F8081918138DC8EEB90E080
:1008B00035DC4091010150E060E070E08AE003DD4A
:1008C00088E790E02BDC4D2F50E060E070E08AE09C
:1008D000FADC41DCC1EFCD0F0D2F10E00F501109F4
:1008E0006894992494F89D0EA12C812C6CED85E0E0
:1008F00004DDC1BF61E081E00ADD6B017C01DC0148
:10090000CB0188519C4FAF4FBF4F813D9740A10510
:10091000B10530F4A39481E0A81203C081B601C0F0
:10092000A12CD1BF4A2D50E060E070E080E1CBDC2B
:1009300089E0A3DBA801012E000C660B770B8AE08F
:10094000C2DC89E09ADBB701A6018AE0BCDC03DCEB
:10095000CF5F0F5F1F4FC911C9CF86ED90E0DEDB7F
:10096000C5DB883781F09FEC980F9A3010F098EC37
:10097000980FB82CB90E4B2D50E060E070E08AE083
:10098000A2DCE9DBEDCF8B2D18DD31DDFFCF81B7A8
:10099000825081BFC0E081CE1F920F920FB60F929E
:1009A00011248F9382EC86BF12BE8F910F900FBEE1
:1009B0000F901F9018951F920F920FB60F9211244F
:1009C0008F93769AD59B04C081E08093FC0003C08E
:1009D00081E080931E018F910F900FBE0F901F90AA
:1009E00018951F920F920FB60F9211242F933F93D9
:1009F0008F939F93AF93BF93D59B2DC08EB58111DD
:100A000003C082E08EBD3DC02CB53DB51DBC1CBCF5
:100A100090911F01809114019817B8F080911501F1
:100A200090911601A0911701B09118019058A10959
:100A3000B109820F931FA11DB11D809315019093E1
:100A40001601A0931701B093180180911F018F5FC9
:100A500080931F0116C0CE9914C012BE81E686BFD6
:100A600081E083BF82E088BF89B7826089BF6E9AC8
:100A70006C9A6A9A10921E0187EF8EB98BB78F7E9F
:100A80008BBFBF91AF919F918F913F912F910F900D
:100A90000FBE0F901F901895991B79E004C0991F05
:100AA000961708F0961B881F7A95C9F780950895C8
:100AB000052E97FB16F400940FD057FD05D014D0E7
:100AC00007FC02D046F408C050954095309521951A
:100AD0003F4F4F4F5F4F089590958095709561956A
:100AE0007F4F8F4F9F4F0895A1E21A2EAA1BBB1B69
:100AF000FD010DC0AA1FBB1FEE1FFF1FA217B307EA
:100B0000E407F50720F0A21BB30BE40BF50B661FFF
:100B1000771F881F991F1A9469F7609570958095C3
:100B200090959B01AC01BD01CF010895E199FECFE5
:100B30001FBA8EBBE09A99278DB30895262FE199AD
:100B4000FECF1CBA1FBA8EBB2DBB0FB6F894E29A2B
:0C0B5000E19A0FBE01960895F894FFCFC3
:100B5C000D0A56616C75657320736176656420743B
:100B6C006F20454550524F4D20200034382F5000F7
:100B7C0038382F50003136382F50003332382F5040
:100B8C000036343400333241003434410041746D4A
:100B9C006567612000415474696E7920000D0A0D5F
:100BAC000A43616C6962726174696E6720000D0A98
:100BBC0044562F5756204F534343414C2076616C7B
:100BCC00756573202000557365722063616C3F203E
:100BDC00456E746572203120746F204620746865F0
:0C0BEC006E2078206966204F4B0D0A0037
:00000001FF
