:1000000010C02AC0FDC428C027C026C025C024C0F7
:1000100023C0D1C421C020C01FC01EC01DC01CC031
:10002000D9C411241FBECFE5D1E0DEBFCDBF11E0A2
:10003000A0E6B0E0EAE7FBE002C005900D92A63032
:10004000B107D9F721E0A6E0B1E001C01D92A033CD
:10005000B207E1F7FBD18FC5D3CF982F9695957551
:10006000880F8A7A982B892F869586958373990FA6
:10007000990F9C7C892B82950895EFDF91E093BFC7
:10008000909106019923E1F3109206019BEF9EB92E
:10009000982F9695969590689FB99091060199230F
:1000A000E1F3109206019BEF9EB9880F880F880F2D
:1000B00087608FB9809106018823E1F310920601D1
:1000C00013BE08958AB31ABADE9A1DB882EC86BFB1
:1000D00082E088BF12BE89B7826089BF6E9A6C9A2F
:1000E0006A9AD59A8FEF8FB98EB908958AB38F78AF
:1000F0008ABB8BB380678BBB1DB88AB780618ABF10
:100100008BB780618BBF969A809128018823E1F399
:1001100010922801D7DF80B3A0DF08950F931F93BB
:10012000CF93DF93FC018081811109C00FC08991B9
:10013000882361F0A2DF0C171D07C9F707C08F01E4
:100140009CDFE801219608531F4FF1CFDF91CF913B
:100150001F910F91089583E091E0E0DF08952F92C1
:100160003F924F925F926F927F928F929F92AF9247
:10017000BF92CF92DF92EF92FF920F931F93CF9394
:10018000DF931C012A013B014115510561057048AF
:1001900061F52A3019F02031B9F063C098E3F1011C
:1001A000908384E3818326E3228323E32383948360
:1001B000858397E39683878381E3808782E38187C2
:1001C0008DE2828713864DC080E3F10180838183B5
:1001D0008283838384838583868388E387838DE218
:1001E00080871186128613863CC0E101C1010C96FE
:1001F000F1011192E817F907E1F773016201772025
:100200003CF4CC24DD247601C418D508E608F708B0
:1002100000E010E0822E912CA12CB12CC701B60178
:10022000A501940154D468836A3018F4605D688332
:1002300002C0695C68830F5F1F4FC701B601A5014B
:10024000940145D469017A01219612161306140609
:10025000150624F377202CF4F101E00FF11F8DE255
:100260008083DF91CF911F910F91FF90EF90DF90EE
:10027000CF90BF90AF909F908F907F906F905F9046
:100280004F903F902F9008950F931F93CF93DF933C
:10029000FC012081222391F03196C0E0D0E021962C
:1002A00021912111FCCF209749F08C010C0F1D1FCB
:1002B000F80182918F01E1DE2197D1F7DF91CF9193
:1002C0001F910F910895CF93DF93CDB7DEB72C9791
:1002D0000FB6F894DEBF0FBECDBF282FCE0101961A
:1002E0003EDFCE010196D0DF2C960FB6F894DEBF2C
:1002F0000FBECDBFDF91CF91089562BF83BF08B617
:1003000000FEFDCF88B7816088BF13BE0895A62F79
:100310001EBC1DBC1CBC9AB790619ABF9BB7906174
:100320009BBF949A813021F480931E0121E00EC07E
:10033000823021F480931E0124E008C0833029F428
:1003400085E080931E012AE001C021E0109229017E
:1003500010921F011092200110922101109222018F
:10036000E22FF0E08091290130911E0190E0AF0171
:10037000430F511D84179507ACF31092290160912A
:100380001F01709120018091210190912201A11102
:1003900009C099233CF490958095709561957F4FA5
:1003A0008F4F9F4F3BB73F7E3BBF949830E040E07C
:1003B00050E08DD3CA01B9010895CF93C82F809121
:1003C0000701909108016C2F0197C7D38091070115
:1003D000909108016C2F0297C0D3809107019091F2
:1003E000080160910B010397B8D3CF91089580E67F
:1003F00090E094DE80910701909108010197A5D3C8
:10040000482F50E060E070E08AE05DDF88E790E030
:1004100085DE8091070190910801029796D3482FBD
:1004200050E060E070E08AE04EDF88E790E076DE42
:100430008091070190910801039787D3482F50E0DE
:1004400060E070E08AE03FDF86DE0895A89584B71B
:10045000877F84BF81B5886181BD11BC85B78F7BE3
:1004600085BF1ABA8FEF8BBB17BA8FE088BBECE061
:10047000F1E08BE790E09183808380E890E09383C4
:10048000828385E890E0958384838BE890E097836E
:10049000868381E990E09187808785E990E0938762
:1004A000828789E990E095878487EAE2F1E08DE927
:1004B00090E09183808385EA90E0938382838CEF40
:1004C0009FE143D3C82F90E090932F0180932E019A
:1004D0008BEF9FE13AD3282F30E030932601209311
:1004E0002501C43909F452C028F4C23951F0C33986
:1004F00089F1A9C0C53909F465C0C63909F48BC0B2
:10050000A2C020E038E0309324012093230120E0B2
:1005100031E03093080120930701873071F08A3071
:1005200019F0853009F08FC010921D0110921C0146
:1005300010920A011092090186C086E090E0909323
:100540001D0180931C0181E090E090930A0180934B
:10055000090179C020E030E1309324012093230188
:1005600020E032E030930801209307018A3019F02F
:100570008F3009F068C081E090E090931D01809376
:100580001C0110920A01109209015DC020E030E2C6
:10059000309324012093230120E032E030930801BE
:1005A00020930701863019F08B3009F04CC082E0AF
:1005B00090E090931D0180931C0110920A0110920B
:1005C000090141C020E030E430932401209323014D
:1005D00020E034E030930801209307018F3029F0A8
:1005E000843119F0823079F50BC083E090E090936C
:1005F0001D0180931C0110920A011092090123C071
:1006000085E090E090931D0180931C0110920A01F7
:100610001092090118C020E030E8309324012093A3
:10062000230120E038E0309308012093070189304E
:1006300051F484E090E090931D0180931C0110928E
:100640000A01109209013EDD789481B780930B0175
:10065000D1B7B1B680EF81BFC0E013E01EC081B753
:1006600081B7612F28D2911102C08EE206DD60E0D1
:1006700081E04DDE643F21E07207810591050CF4B5
:10068000D1B7683E7340810591050CF08FC1CF5FF3
:1006900081B7825081BFC43019F081B78F30F8F62E
:1006A0005ADDECE0F1E08BE790E09183808380E815
:1006B00090E09383828385E890E0958384838BE840
:1006C00090E09783868381E990E09187808785E930
:1006D00090E09387828789E990E095878487EAE2B2
:1006E000F1E08DE990E09183808385EA90E0938347
:1006F00082838CEF9FE129D2C82F90E090932F0145
:1007000080932E018BEF9FE120D2282F30E0309391
:10071000260120932501C43909F452C028F4C239B6
:1007200051F0C33989F1A9C0C53909F465C0C6398A
:1007300009F48BC0A2C020E038E03093240120935C
:10074000230120E031E03093080120930701873036
:1007500071F08A3019F0853009F08FC010921D01B8
:1007600010921C0110920A011092090186C086E0C5
:1007700090E090931D0180931C0181E090E09093A4
:100780000A018093090179C020E030E1309324010F
:100790002093230120E032E03093080120930701E9
:1007A0008A3019F08F3009F068C081E090E09093B2
:1007B0001D0180931C0110920A01109209015DC075
:1007C00020E030E2309324012093230120E032E046
:1007D0003093080120930701863019F08B3009F01F
:1007E0004CC082E090E090931D0180931C01109218
:1007F0000A011092090141C020E030E43093240145
:100800002093230120E034E0309308012093070176
:100810008F3029F0843119F0823079F50BC083E0F4
:1008200090E090931D0180931C0110920A01109298
:10083000090123C085E090E090931D0180931C0185
:1008400010920A011092090118C020E030E830939C
:1008500024012093230120E038E030930801209305
:100860000701893051F484E090E090931D0180935A
:100870001C0110920A01109209018DEA90E04EDCF1
:10088000E0910901F0910A01EE0FFF1FE65DFE4FB6
:100890008081918143DCE0911C01F0911D01EE0FFC
:1008A000FF1FE45FFE4F8081918138DC8EEB90E08A
:1008B00035DC40910B0150E060E070E08AE003DD40
:1008C00088E790E02BDC4D2F50E060E070E08AE09C
:1008D000FADC88E790E022DC809107019091080122
:1008E000029733D1482F50E060E070E08AE0EBDC03
:1008F00032DCC1EFCD0F0D2F10E00F5011096894BD
:10090000992494F89D0EA12C812C6CED85E0F5DCEA
:10091000C1BF61E081E0FBDC6B017C01DC01CB014C
:1009200088519C4FAF4FBF4F813D9740A105B10506
:1009300030F4A39481E0A81203C081B601C0A12CB9
:10094000D1BF4A2D50E060E070E080E1BCDC89E07E
:1009500094DBA801012E000C660B770B8AE0B3DC58
:1009600089E08BDBB701A6018AE0ADDCF4DBCF5F69
:100970000F5F1F4FC911C9CF80EE90E0CFDBB6DB10
:10098000883781F09FEC980F9A3010F098EC980F10
:10099000B82CB90E4B2D50E060E070E08AE093DC9B
:1009A000DADBEDCF8B2D09DD22DDFFCF81B7825061
:1009B00081BFC0E072CE1F920F920FB60F9211242A
:1009C0008F9382EC86BF12BE8F910F900FBE0F9057
:1009D0001F9018951F920F920FB60F9211248F93AC
:1009E000769AD59B04C081E08093060103C081E024
:1009F000809328018F910F900FBE0F901F90189534
:100A00001F920F920FB60F9211242F933F938F9343
:100A10009F93AF93BF93D59B2DC08EB5811103C01B
:100A200082E08EBD3DC02CB53DB51DBC1CBC909177
:100A3000290180911E019817B8F080911F019091B3
:100A40002001A0912101B09122019058A109B10982
:100A5000820F931FA11DB11D80931F019093200150
:100A6000A0932101B0932201809129018F5F80938F
:100A7000290116C0CE9914C012BE81E686BF81E05E
:100A800083BF82E088BF89B7826089BF6E9A6C9A03
:100A90006A9A1092280187EF8EB98BB78F7E8BBF31
:100AA000BF91AF919F918F913F912F910F900FBE6A
:100AB0000F901F901895991B79E004C0991F961705
:100AC00008F0961B881F7A95C9F780950895052E22
:100AD00097FB16F400940FD057FD05D014D007FCF7
:100AE00002D046F408C050954095309521953F4F6F
:100AF0004F4F5F4F089590958095709561957F4F0A
:100B00008F4F9F4F0895A1E21A2EAA1BBB1BFD0118
:100B10000DC0AA1FBB1FEE1FFF1FA217B307E407DC
:100B2000F50720F0A21BB30BE40BF50B661F771F34
:100B3000881F991F1A9469F7609570958095909514
:100B40009B01AC01BD01CF010895E199FECF1FBA11
:100B50008EBBE09A99278DB30895262FE199FECF99
:100B60001CBA1FBA8EBB2DBB0FB6F894E29AE19A5D
:0A0B70000FBE01960895F894FFCF20
:100B7A000D0A56616C75657320736176656420741D
:100B8A006F20454550524F4D20200034382F5000D9
:100B9A0038382F50003136382F50003332382F5022
:100BAA000036343400333241003434410041746D2C
:100BBA006567612000415474696E7920000D0A0D41
:100BCA000A43616C6962726174696E6720000D0A7A
:100BDA0044562F57562C2070726576696F757320AC
:100BEA004F534343414C2076616C75657320200056
:100BFA00557365722063616C3F20456E746572207F
:100C0A003120746F2046207468656E2078206966EA
:060C1A00204F4B0D0A0003
:00000001FF
